{"@chainlink/contracts/src/v0.8/mocks/VRFCoordinatorV2Mock.sol":{"VRFCoordinatorV2Mock":{"abi":[{"inputs":[{"internalType":"uint96","name":"_baseFee","type":"uint96"},{"internalType":"uint96","name":"_gasPriceLink","type":"uint96"}],"stateMutability":"nonpayable","type":"constructor"},{"inputs":[],"name":"InsufficientBalance","type":"error"},{"inputs":[],"name":"InvalidSubscription","type":"error"},{"inputs":[{"internalType":"address","name":"owner","type":"address"}],"name":"MustBeSubOwner","type":"error"},{"anonymous":false,"inputs":[{"indexed":true,"internalType":"uint256","name":"requestId","type":"uint256"},{"indexed":false,"internalType":"uint256","name":"outputSeed","type":"uint256"},{"indexed":false,"internalType":"uint96","name":"payment","type":"uint96"},{"indexed":false,"internalType":"bool","name":"success","type":"bool"}],"name":"RandomWordsFulfilled","type":"event"},{"anonymous":false,"inputs":[{"indexed":true,"internalType":"bytes32","name":"keyHash","type":"bytes32"},{"indexed":false,"internalType":"uint256","name":"requestId","type":"uint256"},{"indexed":false,"internalType":"uint256","name":"preSeed","type":"uint256"},{"indexed":true,"internalType":"uint64","name":"subId","type":"uint64"},{"indexed":false,"internalType":"uint16","name":"minimumRequestConfirmations","type":"uint16"},{"indexed":false,"internalType":"uint32","name":"callbackGasLimit","type":"uint32"},{"indexed":false,"internalType":"uint32","name":"numWords","type":"uint32"},{"indexed":true,"internalType":"address","name":"sender","type":"address"}],"name":"RandomWordsRequested","type":"event"},{"anonymous":false,"inputs":[{"indexed":true,"internalType":"uint64","name":"subId","type":"uint64"},{"indexed":false,"internalType":"address","name":"to","type":"address"},{"indexed":false,"internalType":"uint256","name":"amount","type":"uint256"}],"name":"SubscriptionCanceled","type":"event"},{"anonymous":false,"inputs":[{"indexed":true,"internalType":"uint64","name":"subId","type":"uint64"},{"indexed":false,"internalType":"address","name":"owner","type":"address"}],"name":"SubscriptionCreated","type":"event"},{"anonymous":false,"inputs":[{"indexed":true,"internalType":"uint64","name":"subId","type":"uint64"},{"indexed":false,"internalType":"uint256","name":"oldBalance","type":"uint256"},{"indexed":false,"internalType":"uint256","name":"newBalance","type":"uint256"}],"name":"SubscriptionFunded","type":"event"},{"inputs":[],"name":"BASE_FEE","outputs":[{"internalType":"uint96","name":"","type":"uint96"}],"stateMutability":"view","type":"function"},{"inputs":[],"name":"GAS_PRICE_LINK","outputs":[{"internalType":"uint96","name":"","type":"uint96"}],"stateMutability":"view","type":"function"},{"inputs":[{"internalType":"uint64","name":"_subId","type":"uint64"}],"name":"acceptSubscriptionOwnerTransfer","outputs":[],"stateMutability":"pure","type":"function"},{"inputs":[{"internalType":"uint64","name":"_subId","type":"uint64"},{"internalType":"address","name":"_consumer","type":"address"}],"name":"addConsumer","outputs":[],"stateMutability":"pure","type":"function"},{"inputs":[{"internalType":"uint64","name":"_subId","type":"uint64"},{"internalType":"address","name":"_to","type":"address"}],"name":"cancelSubscription","outputs":[],"stateMutability":"nonpayable","type":"function"},{"inputs":[],"name":"createSubscription","outputs":[{"internalType":"uint64","name":"_subId","type":"uint64"}],"stateMutability":"nonpayable","type":"function"},{"inputs":[{"internalType":"uint256","name":"_requestId","type":"uint256"},{"internalType":"address","name":"_consumer","type":"address"}],"name":"fulfillRandomWords","outputs":[],"stateMutability":"nonpayable","type":"function"},{"inputs":[{"internalType":"uint64","name":"_subId","type":"uint64"},{"internalType":"uint96","name":"_amount","type":"uint96"}],"name":"fundSubscription","outputs":[],"stateMutability":"nonpayable","type":"function"},{"inputs":[],"name":"getRequestConfig","outputs":[{"internalType":"uint16","name":"","type":"uint16"},{"internalType":"uint32","name":"","type":"uint32"},{"internalType":"bytes32[]","name":"","type":"bytes32[]"}],"stateMutability":"pure","type":"function"},{"inputs":[{"internalType":"uint64","name":"_subId","type":"uint64"}],"name":"getSubscription","outputs":[{"internalType":"uint96","name":"balance","type":"uint96"},{"internalType":"uint64","name":"reqCount","type":"uint64"},{"internalType":"address","name":"owner","type":"address"},{"internalType":"address[]","name":"consumers","type":"address[]"}],"stateMutability":"view","type":"function"},{"inputs":[{"internalType":"uint64","name":"_subId","type":"uint64"},{"internalType":"address","name":"_consumer","type":"address"}],"name":"removeConsumer","outputs":[],"stateMutability":"pure","type":"function"},{"inputs":[{"internalType":"bytes32","name":"_keyHash","type":"bytes32"},{"internalType":"uint64","name":"_subId","type":"uint64"},{"internalType":"uint16","name":"_minimumRequestConfirmations","type":"uint16"},{"internalType":"uint32","name":"_callbackGasLimit","type":"uint32"},{"internalType":"uint32","name":"_numWords","type":"uint32"}],"name":"requestRandomWords","outputs":[{"internalType":"uint256","name":"","type":"uint256"}],"stateMutability":"nonpayable","type":"function"},{"inputs":[{"internalType":"uint64","name":"_subId","type":"uint64"},{"internalType":"address","name":"_newOwner","type":"address"}],"name":"requestSubscriptionOwnerTransfer","outputs":[],"stateMutability":"pure","type":"function"}],"devdoc":{"kind":"dev","methods":{"createSubscription()":{"details":"You can manage the consumer set dynamically with addConsumer/removeConsumer.Note to fund the subscription, use transferAndCall. For exampleLINKTOKEN.transferAndCall(address(COORDINATOR),amount,abi.encode(subId));","returns":{"_subId":"- A unique subscription id."}},"fulfillRandomWords(uint256,address)":{"details":"This mock uses a simplified formula for calculating payment amount and gas usage, and doesnot account for all edge cases handled in the real VRF coordinator. When making requestsagainst the real coordinator a small amount of additional LINK is required.","params":{"_consumer":"the VRF randomness consumer to send the result to","_requestId":"the request to fulfill"}},"fundSubscription(uint64,uint96)":{"params":{"_amount":"the amount to fund","_subId":"the subscription to fund"}},"getRequestConfig()":{"returns":{"_0":"minimumRequestConfirmations global min for request confirmations","_1":"maxGasLimit global max for request gas limit","_2":"s_provingKeyHashes list of registered key hashes"}}},"version":1},"evm":{"bytecode":{"linkReferences":{},"object":"60c06040526001805560646002553480156200001a57600080fd5b5060405162002049380380620020498339818101604052810190620000409190620000e4565b816bffffffffffffffffffffffff166080816bffffffffffffffffffffffff1660a01b81525050806bffffffffffffffffffffffff1660a0816bffffffffffffffffffffffff1660a01b8152505050506200012b565b600080fd5b60006bffffffffffffffffffffffff82169050919050565b620000be816200009b565b8114620000ca57600080fd5b50565b600081519050620000de81620000b3565b92915050565b60008060408385031215620000fe57620000fd62000096565b5b60006200010e85828601620000cd565b92505060206200012185828601620000cd565b9150509250929050565b60805160a01c60a05160a01c611ee4620001656000396000818161086c0152610cdc01526000818161031101526108b10152611ee46000f3fe608060405234801561001057600080fd5b50600436106100ce5760003560e01c8063823597401161008c578063a410347f11610066578063a410347f146101eb578063a47c769614610209578063afc69b531461023c578063d7ae1d3014610258576100ce565b806382359740146101955780639f87fad7146101b1578063a21a23e4146101cd576100ce565b8062012291146100d357806304c357cb146100f35780633d18651e1461010f5780635d3b1d301461012d5780637341c10c1461015d578063808974ff14610179575b600080fd5b6100db610274565b6040516100ea93929190611391565b60405180910390f35b61010d60048036038101906101089190611472565b6102d4565b005b61011761030f565b60405161012491906114d9565b60405180910390f35b61014760048036038101906101429190611578565b610333565b604051610154919061160c565b60405180910390f35b61017760048036038101906101729190611472565b61054f565b005b610193600480360381019061018e9190611653565b61058a565b005b6101af60048036038101906101aa9190611693565b610aaf565b005b6101cb60048036038101906101c69190611472565b610aea565b005b6101d5610b25565b6040516101e291906116cf565b60405180910390f35b6101f3610cda565b60405161020091906114d9565b60405180910390f35b610223600480360381019061021e9190611693565b610cfe565b60405161023394939291906117b7565b60405180910390f35b6102566004803603810190610251919061182f565b610e9f565b005b610272600480360381019061026d9190611472565b61106a565b005b60008060606003621e8480600067ffffffffffffffff81111561029a5761029961186f565b5b6040519080825280602002602001820160405280156102c85781602001602082028036833780820191505090505b50925092509250909192565b6040517f08c379a0000000000000000000000000000000000000000000000000000000008152600401610306906118fb565b60405180910390fd5b7f000000000000000000000000000000000000000000000000000000000000000081565b60008073ffffffffffffffffffffffffffffffffffffffff16600360008767ffffffffffffffff1667ffffffffffffffff16815260200190815260200160002060000160009054906101000a900473ffffffffffffffffffffffffffffffffffffffff1673ffffffffffffffffffffffffffffffffffffffff1614156103e5576040517f1f6a65b600000000000000000000000000000000000000000000000000000000815260040160405180910390fd5b6000600160008154809291906103fa9061194a565b9190505590506000600260008154809291906104159061194a565b91905055905060405180606001604052808867ffffffffffffffff1681526020018663ffffffff1681526020018563ffffffff168152506004600084815260200190815260200160002060008201518160000160006101000a81548167ffffffffffffffff021916908367ffffffffffffffff16021790555060208201518160000160086101000a81548163ffffffff021916908363ffffffff160217905550604082015181600001600c6101000a81548163ffffffff021916908363ffffffff1602179055509050503373ffffffffffffffffffffffffffffffffffffffff168767ffffffffffffffff16897f63373d1c4696214b898952999c9aaec57dac1ee2723cec59bea6888f489a977285858b8b8b604051610539959493929190611993565b60405180910390a4819250505095945050505050565b6040517f08c379a0000000000000000000000000000000000000000000000000000000008152600401610581906118fb565b60405180910390fd5b60005a905060006004600085815260200190815260200160002060000160009054906101000a900467ffffffffffffffff1667ffffffffffffffff161415610607576040517f08c379a00000000000000000000000000000000000000000000000000000000081526004016105fe90611a32565b60405180910390fd5b6000600460008581526020019081526020016000206040518060600160405290816000820160009054906101000a900467ffffffffffffffff1667ffffffffffffffff1667ffffffffffffffff1681526020016000820160089054906101000a900463ffffffff1663ffffffff1663ffffffff16815260200160008201600c9054906101000a900463ffffffff1663ffffffff1663ffffffff168152505090506000816040015163ffffffff1667ffffffffffffffff8111156106cd576106cc61186f565b5b6040519080825280602002602001820160405280156106fb5781602001602082028036833780820191505090505b50905060005b826040015163ffffffff16811015610771578581604051602001610726929190611a52565b6040516020818303038152906040528051906020012060001c82828151811061075257610751611a7b565b5b60200260200101818152505080806107699061194a565b915050610701565b50600080631fe543e360e01b8784604051602401610790929190611b68565b604051602081830303815290604052907bffffffffffffffffffffffffffffffffffffffffffffffffffffffff19166020820180517bffffffffffffffffffffffffffffffffffffffffffffffffffffffff8381831617835250505050905060008673ffffffffffffffffffffffffffffffffffffffff16856020015163ffffffff16836040516108219190611c12565b60006040518083038160008787f1925050503d806000811461085f576040519150601f19603f3d011682016040523d82523d6000602084013e610864565b606091505b5050905060007f00000000000000000000000000000000000000000000000000000000000000006bffffffffffffffffffffffff165a886108a59190611c29565b6108af9190611c5d565b7f00000000000000000000000000000000000000000000000000000000000000006bffffffffffffffffffffffff166108e89190611cb7565b9050806bffffffffffffffffffffffff1660036000886000015167ffffffffffffffff1667ffffffffffffffff16815260200190815260200160002060000160149054906101000a90046bffffffffffffffffffffffff166bffffffffffffffffffffffff161015610986576040517ff4d678b800000000000000000000000000000000000000000000000000000000815260040160405180910390fd5b8060036000886000015167ffffffffffffffff1667ffffffffffffffff16815260200190815260200160002060000160148282829054906101000a90046bffffffffffffffffffffffff166109db9190611d0d565b92506101000a8154816bffffffffffffffffffffffff02191690836bffffffffffffffffffffffff160217905550600460008a8152602001908152602001600020600080820160006101000a81549067ffffffffffffffff02191690556000820160086101000a81549063ffffffff021916905560008201600c6101000a81549063ffffffff02191690555050887f7dffc5ae5ee4e2e4df1651cf6ad329a73cebdb728f37ea0187b9b17e036756e48a8385604051610a9c93929190611d5c565b60405180910390a2505050505050505050565b6040517f08c379a0000000000000000000000000000000000000000000000000000000008152600401610ae1906118fb565b60405180910390fd5b6040517f08c379a0000000000000000000000000000000000000000000000000000000008152600401610b1c906118fb565b60405180910390fd5b600080600081819054906101000a900467ffffffffffffffff1680929190610b4c90611d93565b91906101000a81548167ffffffffffffffff021916908367ffffffffffffffff1602179055505060405180604001604052803373ffffffffffffffffffffffffffffffffffffffff16815260200160006bffffffffffffffffffffffff16815250600360008060009054906101000a900467ffffffffffffffff1667ffffffffffffffff1667ffffffffffffffff16815260200190815260200160002060008201518160000160006101000a81548173ffffffffffffffffffffffffffffffffffffffff021916908373ffffffffffffffffffffffffffffffffffffffff16021790555060208201518160000160146101000a8154816bffffffffffffffffffffffff02191690836bffffffffffffffffffffffff16021790555090505060008054906101000a900467ffffffffffffffff1667ffffffffffffffff167f464722b4166576d3dcbba877b999bc35cf911f4eaf434b7eba68fa113951d0bf33604051610cb89190611dc4565b60405180910390a260008054906101000a900467ffffffffffffffff16905090565b7f000000000000000000000000000000000000000000000000000000000000000081565b60008060006060600073ffffffffffffffffffffffffffffffffffffffff16600360008767ffffffffffffffff1667ffffffffffffffff16815260200190815260200160002060000160009054906101000a900473ffffffffffffffffffffffffffffffffffffffff1673ffffffffffffffffffffffffffffffffffffffff161415610db6576040517f1f6a65b600000000000000000000000000000000000000000000000000000000815260040160405180910390fd5b600360008667ffffffffffffffff1667ffffffffffffffff16815260200190815260200160002060000160149054906101000a90046bffffffffffffffffffffffff166000600360008867ffffffffffffffff1667ffffffffffffffff16815260200190815260200160002060000160009054906101000a900473ffffffffffffffffffffffffffffffffffffffff16600067ffffffffffffffff811115610e6157610e6061186f565b5b604051908082528060200260200182016040528015610e8f5781602001602082028036833780820191505090505b5093509350935093509193509193565b600073ffffffffffffffffffffffffffffffffffffffff16600360008467ffffffffffffffff1667ffffffffffffffff16815260200190815260200160002060000160009054906101000a900473ffffffffffffffffffffffffffffffffffffffff1673ffffffffffffffffffffffffffffffffffffffff161415610f50576040517f1f6a65b600000000000000000000000000000000000000000000000000000000815260040160405180910390fd5b6000600360008467ffffffffffffffff1667ffffffffffffffff16815260200190815260200160002060000160149054906101000a90046bffffffffffffffffffffffff16905081600360008567ffffffffffffffff1667ffffffffffffffff16815260200190815260200160002060000160148282829054906101000a90046bffffffffffffffffffffffff16610fe89190611ddf565b92506101000a8154816bffffffffffffffffffffffff02191690836bffffffffffffffffffffffff1602179055508267ffffffffffffffff167fd39ec07f4e209f627a4c427971473820dc129761ba28de8906bd56f57101d4f882848461104f9190611ddf565b60405161105d929190611e5c565b60405180910390a2505050565b816000600360008367ffffffffffffffff1667ffffffffffffffff16815260200190815260200160002060000160009054906101000a900473ffffffffffffffffffffffffffffffffffffffff169050600073ffffffffffffffffffffffffffffffffffffffff168173ffffffffffffffffffffffffffffffffffffffff161415611121576040517f1f6a65b600000000000000000000000000000000000000000000000000000000815260040160405180910390fd5b8073ffffffffffffffffffffffffffffffffffffffff163373ffffffffffffffffffffffffffffffffffffffff161461119157806040517fd8a3fb520000000000000000000000000000000000000000000000000000000081526004016111889190611dc4565b60405180910390fd5b8367ffffffffffffffff167fe8ed5b475a5b5987aa9165e8731bb78043f39eee32ec5a1169a89e27fcd4981584600360008867ffffffffffffffff1667ffffffffffffffff16815260200190815260200160002060000160149054906101000a90046bffffffffffffffffffffffff1660405161120f929190611e85565b60405180910390a2600360008567ffffffffffffffff1667ffffffffffffffff168152602001908152602001600020600080820160006101000a81549073ffffffffffffffffffffffffffffffffffffffff02191690556000820160146101000a8154906bffffffffffffffffffffffff0219169055505050505050565b600061ffff82169050919050565b6112a48161128d565b82525050565b600063ffffffff82169050919050565b6112c3816112aa565b82525050565b600081519050919050565b600082825260208201905092915050565b6000819050602082019050919050565b6000819050919050565b611308816112f5565b82525050565b600061131a83836112ff565b60208301905092915050565b6000602082019050919050565b600061133e826112c9565b61134881856112d4565b9350611353836112e5565b8060005b8381101561138457815161136b888261130e565b975061137683611326565b925050600181019050611357565b5085935050505092915050565b60006060820190506113a6600083018661129b565b6113b360208301856112ba565b81810360408301526113c58184611333565b9050949350505050565b600080fd5b600067ffffffffffffffff82169050919050565b6113f1816113d4565b81146113fc57600080fd5b50565b60008135905061140e816113e8565b92915050565b600073ffffffffffffffffffffffffffffffffffffffff82169050919050565b600061143f82611414565b9050919050565b61144f81611434565b811461145a57600080fd5b50565b60008135905061146c81611446565b92915050565b60008060408385031215611489576114886113cf565b5b6000611497858286016113ff565b92505060206114a88582860161145d565b9150509250929050565b60006bffffffffffffffffffffffff82169050919050565b6114d3816114b2565b82525050565b60006020820190506114ee60008301846114ca565b92915050565b6114fd816112f5565b811461150857600080fd5b50565b60008135905061151a816114f4565b92915050565b6115298161128d565b811461153457600080fd5b50565b60008135905061154681611520565b92915050565b611555816112aa565b811461156057600080fd5b50565b6000813590506115728161154c565b92915050565b600080600080600060a08688031215611594576115936113cf565b5b60006115a28882890161150b565b95505060206115b3888289016113ff565b94505060406115c488828901611537565b93505060606115d588828901611563565b92505060806115e688828901611563565b9150509295509295909350565b6000819050919050565b611606816115f3565b82525050565b600060208201905061162160008301846115fd565b92915050565b611630816115f3565b811461163b57600080fd5b50565b60008135905061164d81611627565b92915050565b6000806040838503121561166a576116696113cf565b5b60006116788582860161163e565b92505060206116898582860161145d565b9150509250929050565b6000602082840312156116a9576116a86113cf565b5b60006116b7848285016113ff565b91505092915050565b6116c9816113d4565b82525050565b60006020820190506116e460008301846116c0565b92915050565b6116f381611434565b82525050565b600081519050919050565b600082825260208201905092915050565b6000819050602082019050919050565b61172e81611434565b82525050565b60006117408383611725565b60208301905092915050565b6000602082019050919050565b6000611764826116f9565b61176e8185611704565b935061177983611715565b8060005b838110156117aa5781516117918882611734565b975061179c8361174c565b92505060018101905061177d565b5085935050505092915050565b60006080820190506117cc60008301876114ca565b6117d960208301866116c0565b6117e660408301856116ea565b81810360608301526117f88184611759565b905095945050505050565b61180c816114b2565b811461181757600080fd5b50565b60008135905061182981611803565b92915050565b60008060408385031215611846576118456113cf565b5b6000611854858286016113ff565b92505060206118658582860161181a565b9150509250929050565b7f4e487b7100000000000000000000000000000000000000000000000000000000600052604160045260246000fd5b600082825260208201905092915050565b7f6e6f7420696d706c656d656e7465640000000000000000000000000000000000600082015250565b60006118e5600f8361189e565b91506118f0826118af565b602082019050919050565b60006020820190508181036000830152611914816118d8565b9050919050565b7f4e487b7100000000000000000000000000000000000000000000000000000000600052601160045260246000fd5b6000611955826115f3565b91507fffffffffffffffffffffffffffffffffffffffffffffffffffffffffffffffff8214156119885761198761191b565b5b600182019050919050565b600060a0820190506119a860008301886115fd565b6119b560208301876115fd565b6119c2604083018661129b565b6119cf60608301856112ba565b6119dc60808301846112ba565b9695505050505050565b7f6e6f6e6578697374656e74207265717565737400000000000000000000000000600082015250565b6000611a1c60138361189e565b9150611a27826119e6565b602082019050919050565b60006020820190508181036000830152611a4b81611a0f565b9050919050565b6000604082019050611a6760008301856115fd565b611a7460208301846115fd565b9392505050565b7f4e487b7100000000000000000000000000000000000000000000000000000000600052603260045260246000fd5b600081519050919050565b600082825260208201905092915050565b6000819050602082019050919050565b611adf816115f3565b82525050565b6000611af18383611ad6565b60208301905092915050565b6000602082019050919050565b6000611b1582611aaa565b611b1f8185611ab5565b9350611b2a83611ac6565b8060005b83811015611b5b578151611b428882611ae5565b9750611b4d83611afd565b925050600181019050611b2e565b5085935050505092915050565b6000604082019050611b7d60008301856115fd565b8181036020830152611b8f8184611b0a565b90509392505050565b600081519050919050565b600081905092915050565b60005b83811015611bcc578082015181840152602081019050611bb1565b83811115611bdb576000848401525b50505050565b6000611bec82611b98565b611bf68185611ba3565b9350611c06818560208601611bae565b80840191505092915050565b6000611c1e8284611be1565b915081905092915050565b6000611c34826115f3565b9150611c3f836115f3565b925082821015611c5257611c5161191b565b5b828203905092915050565b6000611c68826115f3565b9150611c73836115f3565b9250817fffffffffffffffffffffffffffffffffffffffffffffffffffffffffffffffff0483118215151615611cac57611cab61191b565b5b828202905092915050565b6000611cc2826115f3565b9150611ccd836115f3565b9250827fffffffffffffffffffffffffffffffffffffffffffffffffffffffffffffffff03821115611d0257611d0161191b565b5b828201905092915050565b6000611d18826114b2565b9150611d23836114b2565b925082821015611d3657611d3561191b565b5b828203905092915050565b60008115159050919050565b611d5681611d41565b82525050565b6000606082019050611d7160008301866115fd565b611d7e60208301856114ca565b611d8b6040830184611d4d565b949350505050565b6000611d9e826113d4565b915067ffffffffffffffff821415611db957611db861191b565b5b600182019050919050565b6000602082019050611dd960008301846116ea565b92915050565b6000611dea826114b2565b9150611df5836114b2565b9250826bffffffffffffffffffffffff03821115611e1657611e1561191b565b5b828201905092915050565b6000819050919050565b6000611e46611e41611e3c846114b2565b611e21565b6115f3565b9050919050565b611e5681611e2b565b82525050565b6000604082019050611e716000830185611e4d565b611e7e6020830184611e4d565b9392505050565b6000604082019050611e9a60008301856116ea565b611ea76020830184611e4d565b939250505056fea2646970667358221220e94f07f3e4bb71dae8e3eadbfe05f98643ca236f2aef48270e1b962a33ec18bd64736f6c63430008080033","opcodes":"PUSH1 0xC0 PUSH1 0x40 MSTORE PUSH1 0x1 DUP1 SSTORE PUSH1 0x64 PUSH1 0x2 SSTORE CALLVALUE DUP1 ISZERO PUSH3 0x1A JUMPI PUSH1 0x0 DUP1 REVERT JUMPDEST POP PUSH1 0x40 MLOAD PUSH3 0x2049 CODESIZE SUB DUP1 PUSH3 0x2049 DUP4 CODECOPY DUP2 DUP2 ADD PUSH1 0x40 MSTORE DUP2 ADD SWAP1 PUSH3 0x40 SWAP2 SWAP1 PUSH3 0xE4 JUMP JUMPDEST DUP2 PUSH12 0xFFFFFFFFFFFFFFFFFFFFFFFF AND PUSH1 0x80 DUP2 PUSH12 0xFFFFFFFFFFFFFFFFFFFFFFFF AND PUSH1 0xA0 SHL DUP2 MSTORE POP POP DUP1 PUSH12 0xFFFFFFFFFFFFFFFFFFFFFFFF AND PUSH1 0xA0 DUP2 PUSH12 0xFFFFFFFFFFFFFFFFFFFFFFFF AND PUSH1 0xA0 SHL DUP2 MSTORE POP POP POP POP PUSH3 0x12B JUMP JUMPDEST PUSH1 0x0 DUP1 REVERT JUMPDEST PUSH1 0x0 PUSH12 0xFFFFFFFFFFFFFFFFFFFFFFFF DUP3 AND SWAP1 POP SWAP2 SWAP1 POP JUMP JUMPDEST PUSH3 0xBE DUP2 PUSH3 0x9B JUMP JUMPDEST DUP2 EQ PUSH3 0xCA JUMPI PUSH1 0x0 DUP1 REVERT JUMPDEST POP JUMP JUMPDEST PUSH1 0x0 DUP2 MLOAD SWAP1 POP PUSH3 0xDE DUP2 PUSH3 0xB3 JUMP JUMPDEST SWAP3 SWAP2 POP POP JUMP JUMPDEST PUSH1 0x0 DUP1 PUSH1 0x40 DUP4 DUP6 SUB SLT ISZERO PUSH3 0xFE JUMPI PUSH3 0xFD PUSH3 0x96 JUMP JUMPDEST JUMPDEST PUSH1 0x0 PUSH3 0x10E DUP6 DUP3 DUP7 ADD PUSH3 0xCD JUMP JUMPDEST SWAP3 POP POP PUSH1 0x20 PUSH3 0x121 DUP6 DUP3 DUP7 ADD PUSH3 0xCD JUMP JUMPDEST SWAP2 POP POP SWAP3 POP SWAP3 SWAP1 POP JUMP JUMPDEST PUSH1 0x80 MLOAD PUSH1 0xA0 SHR PUSH1 0xA0 MLOAD PUSH1 0xA0 SHR PUSH2 0x1EE4 PUSH3 0x165 PUSH1 0x0 CODECOPY PUSH1 0x0 DUP2 DUP2 PUSH2 0x86C ADD MSTORE PUSH2 0xCDC ADD MSTORE PUSH1 0x0 DUP2 DUP2 PUSH2 0x311 ADD MSTORE PUSH2 0x8B1 ADD MSTORE PUSH2 0x1EE4 PUSH1 0x0 RETURN INVALID PUSH1 0x80 PUSH1 0x40 MSTORE CALLVALUE DUP1 ISZERO PUSH2 0x10 JUMPI PUSH1 0x0 DUP1 REVERT JUMPDEST POP PUSH1 0x4 CALLDATASIZE LT PUSH2 0xCE JUMPI PUSH1 0x0 CALLDATALOAD PUSH1 0xE0 SHR DUP1 PUSH4 0x82359740 GT PUSH2 0x8C JUMPI DUP1 PUSH4 0xA410347F GT PUSH2 0x66 JUMPI DUP1 PUSH4 0xA410347F EQ PUSH2 0x1EB JUMPI DUP1 PUSH4 0xA47C7696 EQ PUSH2 0x209 JUMPI DUP1 PUSH4 0xAFC69B53 EQ PUSH2 0x23C JUMPI DUP1 PUSH4 0xD7AE1D30 EQ PUSH2 0x258 JUMPI PUSH2 0xCE JUMP JUMPDEST DUP1 PUSH4 0x82359740 EQ PUSH2 0x195 JUMPI DUP1 PUSH4 0x9F87FAD7 EQ PUSH2 0x1B1 JUMPI DUP1 PUSH4 0xA21A23E4 EQ PUSH2 0x1CD JUMPI PUSH2 0xCE JUMP JUMPDEST DUP1 PUSH3 0x12291 EQ PUSH2 0xD3 JUMPI DUP1 PUSH4 0x4C357CB EQ PUSH2 0xF3 JUMPI DUP1 PUSH4 0x3D18651E EQ PUSH2 0x10F JUMPI DUP1 PUSH4 0x5D3B1D30 EQ PUSH2 0x12D JUMPI DUP1 PUSH4 0x7341C10C EQ PUSH2 0x15D JUMPI DUP1 PUSH4 0x808974FF EQ PUSH2 0x179 JUMPI JUMPDEST PUSH1 0x0 DUP1 REVERT JUMPDEST PUSH2 0xDB PUSH2 0x274 JUMP JUMPDEST PUSH1 0x40 MLOAD PUSH2 0xEA SWAP4 SWAP3 SWAP2 SWAP1 PUSH2 0x1391 JUMP JUMPDEST PUSH1 0x40 MLOAD DUP1 SWAP2 SUB SWAP1 RETURN JUMPDEST PUSH2 0x10D PUSH1 0x4 DUP1 CALLDATASIZE SUB DUP2 ADD SWAP1 PUSH2 0x108 SWAP2 SWAP1 PUSH2 0x1472 JUMP JUMPDEST PUSH2 0x2D4 JUMP JUMPDEST STOP JUMPDEST PUSH2 0x117 PUSH2 0x30F JUMP JUMPDEST PUSH1 0x40 MLOAD PUSH2 0x124 SWAP2 SWAP1 PUSH2 0x14D9 JUMP JUMPDEST PUSH1 0x40 MLOAD DUP1 SWAP2 SUB SWAP1 RETURN JUMPDEST PUSH2 0x147 PUSH1 0x4 DUP1 CALLDATASIZE SUB DUP2 ADD SWAP1 PUSH2 0x142 SWAP2 SWAP1 PUSH2 0x1578 JUMP JUMPDEST PUSH2 0x333 JUMP JUMPDEST PUSH1 0x40 MLOAD PUSH2 0x154 SWAP2 SWAP1 PUSH2 0x160C JUMP JUMPDEST PUSH1 0x40 MLOAD DUP1 SWAP2 SUB SWAP1 RETURN JUMPDEST PUSH2 0x177 PUSH1 0x4 DUP1 CALLDATASIZE SUB DUP2 ADD SWAP1 PUSH2 0x172 SWAP2 SWAP1 PUSH2 0x1472 JUMP JUMPDEST PUSH2 0x54F JUMP JUMPDEST STOP JUMPDEST PUSH2 0x193 PUSH1 0x4 DUP1 CALLDATASIZE SUB DUP2 ADD SWAP1 PUSH2 0x18E SWAP2 SWAP1 PUSH2 0x1653 JUMP JUMPDEST PUSH2 0x58A JUMP JUMPDEST STOP JUMPDEST PUSH2 0x1AF PUSH1 0x4 DUP1 CALLDATASIZE SUB DUP2 ADD SWAP1 PUSH2 0x1AA SWAP2 SWAP1 PUSH2 0x1693 JUMP JUMPDEST PUSH2 0xAAF JUMP JUMPDEST STOP JUMPDEST PUSH2 0x1CB PUSH1 0x4 DUP1 CALLDATASIZE SUB DUP2 ADD SWAP1 PUSH2 0x1C6 SWAP2 SWAP1 PUSH2 0x1472 JUMP JUMPDEST PUSH2 0xAEA JUMP JUMPDEST STOP JUMPDEST PUSH2 0x1D5 PUSH2 0xB25 JUMP JUMPDEST PUSH1 0x40 MLOAD PUSH2 0x1E2 SWAP2 SWAP1 PUSH2 0x16CF JUMP JUMPDEST PUSH1 0x40 MLOAD DUP1 SWAP2 SUB SWAP1 RETURN JUMPDEST PUSH2 0x1F3 PUSH2 0xCDA JUMP JUMPDEST PUSH1 0x40 MLOAD PUSH2 0x200 SWAP2 SWAP1 PUSH2 0x14D9 JUMP JUMPDEST PUSH1 0x40 MLOAD DUP1 SWAP2 SUB SWAP1 RETURN JUMPDEST PUSH2 0x223 PUSH1 0x4 DUP1 CALLDATASIZE SUB DUP2 ADD SWAP1 PUSH2 0x21E SWAP2 SWAP1 PUSH2 0x1693 JUMP JUMPDEST PUSH2 0xCFE JUMP JUMPDEST PUSH1 0x40 MLOAD PUSH2 0x233 SWAP5 SWAP4 SWAP3 SWAP2 SWAP1 PUSH2 0x17B7 JUMP JUMPDEST PUSH1 0x40 MLOAD DUP1 SWAP2 SUB SWAP1 RETURN JUMPDEST PUSH2 0x256 PUSH1 0x4 DUP1 CALLDATASIZE SUB DUP2 ADD SWAP1 PUSH2 0x251 SWAP2 SWAP1 PUSH2 0x182F JUMP JUMPDEST PUSH2 0xE9F JUMP JUMPDEST STOP JUMPDEST PUSH2 0x272 PUSH1 0x4 DUP1 CALLDATASIZE SUB DUP2 ADD SWAP1 PUSH2 0x26D SWAP2 SWAP1 PUSH2 0x1472 JUMP JUMPDEST PUSH2 0x106A JUMP JUMPDEST STOP JUMPDEST PUSH1 0x0 DUP1 PUSH1 0x60 PUSH1 0x3 PUSH3 0x1E8480 PUSH1 0x0 PUSH8 0xFFFFFFFFFFFFFFFF DUP2 GT ISZERO PUSH2 0x29A JUMPI PUSH2 0x299 PUSH2 0x186F JUMP JUMPDEST JUMPDEST PUSH1 0x40 MLOAD SWAP1 DUP1 DUP3 MSTORE DUP1 PUSH1 0x20 MUL PUSH1 0x20 ADD DUP3 ADD PUSH1 0x40 MSTORE DUP1 ISZERO PUSH2 0x2C8 JUMPI DUP2 PUSH1 0x20 ADD PUSH1 0x20 DUP3 MUL DUP1 CALLDATASIZE DUP4 CALLDATACOPY DUP1 DUP3 ADD SWAP2 POP POP SWAP1 POP JUMPDEST POP SWAP3 POP SWAP3 POP SWAP3 POP SWAP1 SWAP2 SWAP3 JUMP JUMPDEST PUSH1 0x40 MLOAD PUSH32 0x8C379A000000000000000000000000000000000000000000000000000000000 DUP2 MSTORE PUSH1 0x4 ADD PUSH2 0x306 SWAP1 PUSH2 0x18FB JUMP JUMPDEST PUSH1 0x40 MLOAD DUP1 SWAP2 SUB SWAP1 REVERT JUMPDEST PUSH32 0x0 DUP2 JUMP JUMPDEST PUSH1 0x0 DUP1 PUSH20 0xFFFFFFFFFFFFFFFFFFFFFFFFFFFFFFFFFFFFFFFF AND PUSH1 0x3 PUSH1 0x0 DUP8 PUSH8 0xFFFFFFFFFFFFFFFF AND PUSH8 0xFFFFFFFFFFFFFFFF AND DUP2 MSTORE PUSH1 0x20 ADD SWAP1 DUP2 MSTORE PUSH1 0x20 ADD PUSH1 0x0 KECCAK256 PUSH1 0x0 ADD PUSH1 0x0 SWAP1 SLOAD SWAP1 PUSH2 0x100 EXP SWAP1 DIV PUSH20 0xFFFFFFFFFFFFFFFFFFFFFFFFFFFFFFFFFFFFFFFF AND PUSH20 0xFFFFFFFFFFFFFFFFFFFFFFFFFFFFFFFFFFFFFFFF AND EQ ISZERO PUSH2 0x3E5 JUMPI PUSH1 0x40 MLOAD PUSH32 0x1F6A65B600000000000000000000000000000000000000000000000000000000 DUP2 MSTORE PUSH1 0x4 ADD PUSH1 0x40 MLOAD DUP1 SWAP2 SUB SWAP1 REVERT JUMPDEST PUSH1 0x0 PUSH1 0x1 PUSH1 0x0 DUP2 SLOAD DUP1 SWAP3 SWAP2 SWAP1 PUSH2 0x3FA SWAP1 PUSH2 0x194A JUMP JUMPDEST SWAP2 SWAP1 POP SSTORE SWAP1 POP PUSH1 0x0 PUSH1 0x2 PUSH1 0x0 DUP2 SLOAD DUP1 SWAP3 SWAP2 SWAP1 PUSH2 0x415 SWAP1 PUSH2 0x194A JUMP JUMPDEST SWAP2 SWAP1 POP SSTORE SWAP1 POP PUSH1 0x40 MLOAD DUP1 PUSH1 0x60 ADD PUSH1 0x40 MSTORE DUP1 DUP9 PUSH8 0xFFFFFFFFFFFFFFFF AND DUP2 MSTORE PUSH1 0x20 ADD DUP7 PUSH4 0xFFFFFFFF AND DUP2 MSTORE PUSH1 0x20 ADD DUP6 PUSH4 0xFFFFFFFF AND DUP2 MSTORE POP PUSH1 0x4 PUSH1 0x0 DUP5 DUP2 MSTORE PUSH1 0x20 ADD SWAP1 DUP2 MSTORE PUSH1 0x20 ADD PUSH1 0x0 KECCAK256 PUSH1 0x0 DUP3 ADD MLOAD DUP2 PUSH1 0x0 ADD PUSH1 0x0 PUSH2 0x100 EXP DUP2 SLOAD DUP2 PUSH8 0xFFFFFFFFFFFFFFFF MUL NOT AND SWAP1 DUP4 PUSH8 0xFFFFFFFFFFFFFFFF AND MUL OR SWAP1 SSTORE POP PUSH1 0x20 DUP3 ADD MLOAD DUP2 PUSH1 0x0 ADD PUSH1 0x8 PUSH2 0x100 EXP DUP2 SLOAD DUP2 PUSH4 0xFFFFFFFF MUL NOT AND SWAP1 DUP4 PUSH4 0xFFFFFFFF AND MUL OR SWAP1 SSTORE POP PUSH1 0x40 DUP3 ADD MLOAD DUP2 PUSH1 0x0 ADD PUSH1 0xC PUSH2 0x100 EXP DUP2 SLOAD DUP2 PUSH4 0xFFFFFFFF MUL NOT AND SWAP1 DUP4 PUSH4 0xFFFFFFFF AND MUL OR SWAP1 SSTORE POP SWAP1 POP POP CALLER PUSH20 0xFFFFFFFFFFFFFFFFFFFFFFFFFFFFFFFFFFFFFFFF AND DUP8 PUSH8 0xFFFFFFFFFFFFFFFF AND DUP10 PUSH32 0x63373D1C4696214B898952999C9AAEC57DAC1EE2723CEC59BEA6888F489A9772 DUP6 DUP6 DUP12 DUP12 DUP12 PUSH1 0x40 MLOAD PUSH2 0x539 SWAP6 SWAP5 SWAP4 SWAP3 SWAP2 SWAP1 PUSH2 0x1993 JUMP JUMPDEST PUSH1 0x40 MLOAD DUP1 SWAP2 SUB SWAP1 LOG4 DUP2 SWAP3 POP POP POP SWAP6 SWAP5 POP POP POP POP POP JUMP JUMPDEST PUSH1 0x40 MLOAD PUSH32 0x8C379A000000000000000000000000000000000000000000000000000000000 DUP2 MSTORE PUSH1 0x4 ADD PUSH2 0x581 SWAP1 PUSH2 0x18FB JUMP JUMPDEST PUSH1 0x40 MLOAD DUP1 SWAP2 SUB SWAP1 REVERT JUMPDEST PUSH1 0x0 GAS SWAP1 POP PUSH1 0x0 PUSH1 0x4 PUSH1 0x0 DUP6 DUP2 MSTORE PUSH1 0x20 ADD SWAP1 DUP2 MSTORE PUSH1 0x20 ADD PUSH1 0x0 KECCAK256 PUSH1 0x0 ADD PUSH1 0x0 SWAP1 SLOAD SWAP1 PUSH2 0x100 EXP SWAP1 DIV PUSH8 0xFFFFFFFFFFFFFFFF AND PUSH8 0xFFFFFFFFFFFFFFFF AND EQ ISZERO PUSH2 0x607 JUMPI PUSH1 0x40 MLOAD PUSH32 0x8C379A000000000000000000000000000000000000000000000000000000000 DUP2 MSTORE PUSH1 0x4 ADD PUSH2 0x5FE SWAP1 PUSH2 0x1A32 JUMP JUMPDEST PUSH1 0x40 MLOAD DUP1 SWAP2 SUB SWAP1 REVERT JUMPDEST PUSH1 0x0 PUSH1 0x4 PUSH1 0x0 DUP6 DUP2 MSTORE PUSH1 0x20 ADD SWAP1 DUP2 MSTORE PUSH1 0x20 ADD PUSH1 0x0 KECCAK256 PUSH1 0x40 MLOAD DUP1 PUSH1 0x60 ADD PUSH1 0x40 MSTORE SWAP1 DUP2 PUSH1 0x0 DUP3 ADD PUSH1 0x0 SWAP1 SLOAD SWAP1 PUSH2 0x100 EXP SWAP1 DIV PUSH8 0xFFFFFFFFFFFFFFFF AND PUSH8 0xFFFFFFFFFFFFFFFF AND PUSH8 0xFFFFFFFFFFFFFFFF AND DUP2 MSTORE PUSH1 0x20 ADD PUSH1 0x0 DUP3 ADD PUSH1 0x8 SWAP1 SLOAD SWAP1 PUSH2 0x100 EXP SWAP1 DIV PUSH4 0xFFFFFFFF AND PUSH4 0xFFFFFFFF AND PUSH4 0xFFFFFFFF AND DUP2 MSTORE PUSH1 0x20 ADD PUSH1 0x0 DUP3 ADD PUSH1 0xC SWAP1 SLOAD SWAP1 PUSH2 0x100 EXP SWAP1 DIV PUSH4 0xFFFFFFFF AND PUSH4 0xFFFFFFFF AND PUSH4 0xFFFFFFFF AND DUP2 MSTORE POP POP SWAP1 POP PUSH1 0x0 DUP2 PUSH1 0x40 ADD MLOAD PUSH4 0xFFFFFFFF AND PUSH8 0xFFFFFFFFFFFFFFFF DUP2 GT ISZERO PUSH2 0x6CD JUMPI PUSH2 0x6CC PUSH2 0x186F JUMP JUMPDEST JUMPDEST PUSH1 0x40 MLOAD SWAP1 DUP1 DUP3 MSTORE DUP1 PUSH1 0x20 MUL PUSH1 0x20 ADD DUP3 ADD PUSH1 0x40 MSTORE DUP1 ISZERO PUSH2 0x6FB JUMPI DUP2 PUSH1 0x20 ADD PUSH1 0x20 DUP3 MUL DUP1 CALLDATASIZE DUP4 CALLDATACOPY DUP1 DUP3 ADD SWAP2 POP POP SWAP1 POP JUMPDEST POP SWAP1 POP PUSH1 0x0 JUMPDEST DUP3 PUSH1 0x40 ADD MLOAD PUSH4 0xFFFFFFFF AND DUP2 LT ISZERO PUSH2 0x771 JUMPI DUP6 DUP2 PUSH1 0x40 MLOAD PUSH1 0x20 ADD PUSH2 0x726 SWAP3 SWAP2 SWAP1 PUSH2 0x1A52 JUMP JUMPDEST PUSH1 0x40 MLOAD PUSH1 0x20 DUP2 DUP4 SUB SUB DUP2 MSTORE SWAP1 PUSH1 0x40 MSTORE DUP1 MLOAD SWAP1 PUSH1 0x20 ADD KECCAK256 PUSH1 0x0 SHR DUP3 DUP3 DUP2 MLOAD DUP2 LT PUSH2 0x752 JUMPI PUSH2 0x751 PUSH2 0x1A7B JUMP JUMPDEST JUMPDEST PUSH1 0x20 MUL PUSH1 0x20 ADD ADD DUP2 DUP2 MSTORE POP POP DUP1 DUP1 PUSH2 0x769 SWAP1 PUSH2 0x194A JUMP JUMPDEST SWAP2 POP POP PUSH2 0x701 JUMP JUMPDEST POP PUSH1 0x0 DUP1 PUSH4 0x1FE543E3 PUSH1 0xE0 SHL DUP8 DUP5 PUSH1 0x40 MLOAD PUSH1 0x24 ADD PUSH2 0x790 SWAP3 SWAP2 SWAP1 PUSH2 0x1B68 JUMP JUMPDEST PUSH1 0x40 MLOAD PUSH1 0x20 DUP2 DUP4 SUB SUB DUP2 MSTORE SWAP1 PUSH1 0x40 MSTORE SWAP1 PUSH28 0xFFFFFFFFFFFFFFFFFFFFFFFFFFFFFFFFFFFFFFFFFFFFFFFFFFFFFFFF NOT AND PUSH1 0x20 DUP3 ADD DUP1 MLOAD PUSH28 0xFFFFFFFFFFFFFFFFFFFFFFFFFFFFFFFFFFFFFFFFFFFFFFFFFFFFFFFF DUP4 DUP2 DUP4 AND OR DUP4 MSTORE POP POP POP POP SWAP1 POP PUSH1 0x0 DUP7 PUSH20 0xFFFFFFFFFFFFFFFFFFFFFFFFFFFFFFFFFFFFFFFF AND DUP6 PUSH1 0x20 ADD MLOAD PUSH4 0xFFFFFFFF AND DUP4 PUSH1 0x40 MLOAD PUSH2 0x821 SWAP2 SWAP1 PUSH2 0x1C12 JUMP JUMPDEST PUSH1 0x0 PUSH1 0x40 MLOAD DUP1 DUP4 SUB DUP2 PUSH1 0x0 DUP8 DUP8 CALL SWAP3 POP POP POP RETURNDATASIZE DUP1 PUSH1 0x0 DUP2 EQ PUSH2 0x85F JUMPI PUSH1 0x40 MLOAD SWAP2 POP PUSH1 0x1F NOT PUSH1 0x3F RETURNDATASIZE ADD AND DUP3 ADD PUSH1 0x40 MSTORE RETURNDATASIZE DUP3 MSTORE RETURNDATASIZE PUSH1 0x0 PUSH1 0x20 DUP5 ADD RETURNDATACOPY PUSH2 0x864 JUMP JUMPDEST PUSH1 0x60 SWAP2 POP JUMPDEST POP POP SWAP1 POP PUSH1 0x0 PUSH32 0x0 PUSH12 0xFFFFFFFFFFFFFFFFFFFFFFFF AND GAS DUP9 PUSH2 0x8A5 SWAP2 SWAP1 PUSH2 0x1C29 JUMP JUMPDEST PUSH2 0x8AF SWAP2 SWAP1 PUSH2 0x1C5D JUMP JUMPDEST PUSH32 0x0 PUSH12 0xFFFFFFFFFFFFFFFFFFFFFFFF AND PUSH2 0x8E8 SWAP2 SWAP1 PUSH2 0x1CB7 JUMP JUMPDEST SWAP1 POP DUP1 PUSH12 0xFFFFFFFFFFFFFFFFFFFFFFFF AND PUSH1 0x3 PUSH1 0x0 DUP9 PUSH1 0x0 ADD MLOAD PUSH8 0xFFFFFFFFFFFFFFFF AND PUSH8 0xFFFFFFFFFFFFFFFF AND DUP2 MSTORE PUSH1 0x20 ADD SWAP1 DUP2 MSTORE PUSH1 0x20 ADD PUSH1 0x0 KECCAK256 PUSH1 0x0 ADD PUSH1 0x14 SWAP1 SLOAD SWAP1 PUSH2 0x100 EXP SWAP1 DIV PUSH12 0xFFFFFFFFFFFFFFFFFFFFFFFF AND PUSH12 0xFFFFFFFFFFFFFFFFFFFFFFFF AND LT ISZERO PUSH2 0x986 JUMPI PUSH1 0x40 MLOAD PUSH32 0xF4D678B800000000000000000000000000000000000000000000000000000000 DUP2 MSTORE PUSH1 0x4 ADD PUSH1 0x40 MLOAD DUP1 SWAP2 SUB SWAP1 REVERT JUMPDEST DUP1 PUSH1 0x3 PUSH1 0x0 DUP9 PUSH1 0x0 ADD MLOAD PUSH8 0xFFFFFFFFFFFFFFFF AND PUSH8 0xFFFFFFFFFFFFFFFF AND DUP2 MSTORE PUSH1 0x20 ADD SWAP1 DUP2 MSTORE PUSH1 0x20 ADD PUSH1 0x0 KECCAK256 PUSH1 0x0 ADD PUSH1 0x14 DUP3 DUP3 DUP3 SWAP1 SLOAD SWAP1 PUSH2 0x100 EXP SWAP1 DIV PUSH12 0xFFFFFFFFFFFFFFFFFFFFFFFF AND PUSH2 0x9DB SWAP2 SWAP1 PUSH2 0x1D0D JUMP JUMPDEST SWAP3 POP PUSH2 0x100 EXP DUP2 SLOAD DUP2 PUSH12 0xFFFFFFFFFFFFFFFFFFFFFFFF MUL NOT AND SWAP1 DUP4 PUSH12 0xFFFFFFFFFFFFFFFFFFFFFFFF AND MUL OR SWAP1 SSTORE POP PUSH1 0x4 PUSH1 0x0 DUP11 DUP2 MSTORE PUSH1 0x20 ADD SWAP1 DUP2 MSTORE PUSH1 0x20 ADD PUSH1 0x0 KECCAK256 PUSH1 0x0 DUP1 DUP3 ADD PUSH1 0x0 PUSH2 0x100 EXP DUP2 SLOAD SWAP1 PUSH8 0xFFFFFFFFFFFFFFFF MUL NOT AND SWAP1 SSTORE PUSH1 0x0 DUP3 ADD PUSH1 0x8 PUSH2 0x100 EXP DUP2 SLOAD SWAP1 PUSH4 0xFFFFFFFF MUL NOT AND SWAP1 SSTORE PUSH1 0x0 DUP3 ADD PUSH1 0xC PUSH2 0x100 EXP DUP2 SLOAD SWAP1 PUSH4 0xFFFFFFFF MUL NOT AND SWAP1 SSTORE POP POP DUP9 PUSH32 0x7DFFC5AE5EE4E2E4DF1651CF6AD329A73CEBDB728F37EA0187B9B17E036756E4 DUP11 DUP4 DUP6 PUSH1 0x40 MLOAD PUSH2 0xA9C SWAP4 SWAP3 SWAP2 SWAP1 PUSH2 0x1D5C JUMP JUMPDEST PUSH1 0x40 MLOAD DUP1 SWAP2 SUB SWAP1 LOG2 POP POP POP POP POP POP POP POP POP JUMP JUMPDEST PUSH1 0x40 MLOAD PUSH32 0x8C379A000000000000000000000000000000000000000000000000000000000 DUP2 MSTORE PUSH1 0x4 ADD PUSH2 0xAE1 SWAP1 PUSH2 0x18FB JUMP JUMPDEST PUSH1 0x40 MLOAD DUP1 SWAP2 SUB SWAP1 REVERT JUMPDEST PUSH1 0x40 MLOAD PUSH32 0x8C379A000000000000000000000000000000000000000000000000000000000 DUP2 MSTORE PUSH1 0x4 ADD PUSH2 0xB1C SWAP1 PUSH2 0x18FB JUMP JUMPDEST PUSH1 0x40 MLOAD DUP1 SWAP2 SUB SWAP1 REVERT JUMPDEST PUSH1 0x0 DUP1 PUSH1 0x0 DUP2 DUP2 SWAP1 SLOAD SWAP1 PUSH2 0x100 EXP SWAP1 DIV PUSH8 0xFFFFFFFFFFFFFFFF AND DUP1 SWAP3 SWAP2 SWAP1 PUSH2 0xB4C SWAP1 PUSH2 0x1D93 JUMP JUMPDEST SWAP2 SWAP1 PUSH2 0x100 EXP DUP2 SLOAD DUP2 PUSH8 0xFFFFFFFFFFFFFFFF MUL NOT AND SWAP1 DUP4 PUSH8 0xFFFFFFFFFFFFFFFF AND MUL OR SWAP1 SSTORE POP POP PUSH1 0x40 MLOAD DUP1 PUSH1 0x40 ADD PUSH1 0x40 MSTORE DUP1 CALLER PUSH20 0xFFFFFFFFFFFFFFFFFFFFFFFFFFFFFFFFFFFFFFFF AND DUP2 MSTORE PUSH1 0x20 ADD PUSH1 0x0 PUSH12 0xFFFFFFFFFFFFFFFFFFFFFFFF AND DUP2 MSTORE POP PUSH1 0x3 PUSH1 0x0 DUP1 PUSH1 0x0 SWAP1 SLOAD SWAP1 PUSH2 0x100 EXP SWAP1 DIV PUSH8 0xFFFFFFFFFFFFFFFF AND PUSH8 0xFFFFFFFFFFFFFFFF AND PUSH8 0xFFFFFFFFFFFFFFFF AND DUP2 MSTORE PUSH1 0x20 ADD SWAP1 DUP2 MSTORE PUSH1 0x20 ADD PUSH1 0x0 KECCAK256 PUSH1 0x0 DUP3 ADD MLOAD DUP2 PUSH1 0x0 ADD PUSH1 0x0 PUSH2 0x100 EXP DUP2 SLOAD DUP2 PUSH20 0xFFFFFFFFFFFFFFFFFFFFFFFFFFFFFFFFFFFFFFFF MUL NOT AND SWAP1 DUP4 PUSH20 0xFFFFFFFFFFFFFFFFFFFFFFFFFFFFFFFFFFFFFFFF AND MUL OR SWAP1 SSTORE POP PUSH1 0x20 DUP3 ADD MLOAD DUP2 PUSH1 0x0 ADD PUSH1 0x14 PUSH2 0x100 EXP DUP2 SLOAD DUP2 PUSH12 0xFFFFFFFFFFFFFFFFFFFFFFFF MUL NOT AND SWAP1 DUP4 PUSH12 0xFFFFFFFFFFFFFFFFFFFFFFFF AND MUL OR SWAP1 SSTORE POP SWAP1 POP POP PUSH1 0x0 DUP1 SLOAD SWAP1 PUSH2 0x100 EXP SWAP1 DIV PUSH8 0xFFFFFFFFFFFFFFFF AND PUSH8 0xFFFFFFFFFFFFFFFF AND PUSH32 0x464722B4166576D3DCBBA877B999BC35CF911F4EAF434B7EBA68FA113951D0BF CALLER PUSH1 0x40 MLOAD PUSH2 0xCB8 SWAP2 SWAP1 PUSH2 0x1DC4 JUMP JUMPDEST PUSH1 0x40 MLOAD DUP1 SWAP2 SUB SWAP1 LOG2 PUSH1 0x0 DUP1 SLOAD SWAP1 PUSH2 0x100 EXP SWAP1 DIV PUSH8 0xFFFFFFFFFFFFFFFF AND SWAP1 POP SWAP1 JUMP JUMPDEST PUSH32 0x0 DUP2 JUMP JUMPDEST PUSH1 0x0 DUP1 PUSH1 0x0 PUSH1 0x60 PUSH1 0x0 PUSH20 0xFFFFFFFFFFFFFFFFFFFFFFFFFFFFFFFFFFFFFFFF AND PUSH1 0x3 PUSH1 0x0 DUP8 PUSH8 0xFFFFFFFFFFFFFFFF AND PUSH8 0xFFFFFFFFFFFFFFFF AND DUP2 MSTORE PUSH1 0x20 ADD SWAP1 DUP2 MSTORE PUSH1 0x20 ADD PUSH1 0x0 KECCAK256 PUSH1 0x0 ADD PUSH1 0x0 SWAP1 SLOAD SWAP1 PUSH2 0x100 EXP SWAP1 DIV PUSH20 0xFFFFFFFFFFFFFFFFFFFFFFFFFFFFFFFFFFFFFFFF AND PUSH20 0xFFFFFFFFFFFFFFFFFFFFFFFFFFFFFFFFFFFFFFFF AND EQ ISZERO PUSH2 0xDB6 JUMPI PUSH1 0x40 MLOAD PUSH32 0x1F6A65B600000000000000000000000000000000000000000000000000000000 DUP2 MSTORE PUSH1 0x4 ADD PUSH1 0x40 MLOAD DUP1 SWAP2 SUB SWAP1 REVERT JUMPDEST PUSH1 0x3 PUSH1 0x0 DUP7 PUSH8 0xFFFFFFFFFFFFFFFF AND PUSH8 0xFFFFFFFFFFFFFFFF AND DUP2 MSTORE PUSH1 0x20 ADD SWAP1 DUP2 MSTORE PUSH1 0x20 ADD PUSH1 0x0 KECCAK256 PUSH1 0x0 ADD PUSH1 0x14 SWAP1 SLOAD SWAP1 PUSH2 0x100 EXP SWAP1 DIV PUSH12 0xFFFFFFFFFFFFFFFFFFFFFFFF AND PUSH1 0x0 PUSH1 0x3 PUSH1 0x0 DUP9 PUSH8 0xFFFFFFFFFFFFFFFF AND PUSH8 0xFFFFFFFFFFFFFFFF AND DUP2 MSTORE PUSH1 0x20 ADD SWAP1 DUP2 MSTORE PUSH1 0x20 ADD PUSH1 0x0 KECCAK256 PUSH1 0x0 ADD PUSH1 0x0 SWAP1 SLOAD SWAP1 PUSH2 0x100 EXP SWAP1 DIV PUSH20 0xFFFFFFFFFFFFFFFFFFFFFFFFFFFFFFFFFFFFFFFF AND PUSH1 0x0 PUSH8 0xFFFFFFFFFFFFFFFF DUP2 GT ISZERO PUSH2 0xE61 JUMPI PUSH2 0xE60 PUSH2 0x186F JUMP JUMPDEST JUMPDEST PUSH1 0x40 MLOAD SWAP1 DUP1 DUP3 MSTORE DUP1 PUSH1 0x20 MUL PUSH1 0x20 ADD DUP3 ADD PUSH1 0x40 MSTORE DUP1 ISZERO PUSH2 0xE8F JUMPI DUP2 PUSH1 0x20 ADD PUSH1 0x20 DUP3 MUL DUP1 CALLDATASIZE DUP4 CALLDATACOPY DUP1 DUP3 ADD SWAP2 POP POP SWAP1 POP JUMPDEST POP SWAP4 POP SWAP4 POP SWAP4 POP SWAP4 POP SWAP2 SWAP4 POP SWAP2 SWAP4 JUMP JUMPDEST PUSH1 0x0 PUSH20 0xFFFFFFFFFFFFFFFFFFFFFFFFFFFFFFFFFFFFFFFF AND PUSH1 0x3 PUSH1 0x0 DUP5 PUSH8 0xFFFFFFFFFFFFFFFF AND PUSH8 0xFFFFFFFFFFFFFFFF AND DUP2 MSTORE PUSH1 0x20 ADD SWAP1 DUP2 MSTORE PUSH1 0x20 ADD PUSH1 0x0 KECCAK256 PUSH1 0x0 ADD PUSH1 0x0 SWAP1 SLOAD SWAP1 PUSH2 0x100 EXP SWAP1 DIV PUSH20 0xFFFFFFFFFFFFFFFFFFFFFFFFFFFFFFFFFFFFFFFF AND PUSH20 0xFFFFFFFFFFFFFFFFFFFFFFFFFFFFFFFFFFFFFFFF AND EQ ISZERO PUSH2 0xF50 JUMPI PUSH1 0x40 MLOAD PUSH32 0x1F6A65B600000000000000000000000000000000000000000000000000000000 DUP2 MSTORE PUSH1 0x4 ADD PUSH1 0x40 MLOAD DUP1 SWAP2 SUB SWAP1 REVERT JUMPDEST PUSH1 0x0 PUSH1 0x3 PUSH1 0x0 DUP5 PUSH8 0xFFFFFFFFFFFFFFFF AND PUSH8 0xFFFFFFFFFFFFFFFF AND DUP2 MSTORE PUSH1 0x20 ADD SWAP1 DUP2 MSTORE PUSH1 0x20 ADD PUSH1 0x0 KECCAK256 PUSH1 0x0 ADD PUSH1 0x14 SWAP1 SLOAD SWAP1 PUSH2 0x100 EXP SWAP1 DIV PUSH12 0xFFFFFFFFFFFFFFFFFFFFFFFF AND SWAP1 POP DUP2 PUSH1 0x3 PUSH1 0x0 DUP6 PUSH8 0xFFFFFFFFFFFFFFFF AND PUSH8 0xFFFFFFFFFFFFFFFF AND DUP2 MSTORE PUSH1 0x20 ADD SWAP1 DUP2 MSTORE PUSH1 0x20 ADD PUSH1 0x0 KECCAK256 PUSH1 0x0 ADD PUSH1 0x14 DUP3 DUP3 DUP3 SWAP1 SLOAD SWAP1 PUSH2 0x100 EXP SWAP1 DIV PUSH12 0xFFFFFFFFFFFFFFFFFFFFFFFF AND PUSH2 0xFE8 SWAP2 SWAP1 PUSH2 0x1DDF JUMP JUMPDEST SWAP3 POP PUSH2 0x100 EXP DUP2 SLOAD DUP2 PUSH12 0xFFFFFFFFFFFFFFFFFFFFFFFF MUL NOT AND SWAP1 DUP4 PUSH12 0xFFFFFFFFFFFFFFFFFFFFFFFF AND MUL OR SWAP1 SSTORE POP DUP3 PUSH8 0xFFFFFFFFFFFFFFFF AND PUSH32 0xD39EC07F4E209F627A4C427971473820DC129761BA28DE8906BD56F57101D4F8 DUP3 DUP5 DUP5 PUSH2 0x104F SWAP2 SWAP1 PUSH2 0x1DDF JUMP JUMPDEST PUSH1 0x40 MLOAD PUSH2 0x105D SWAP3 SWAP2 SWAP1 PUSH2 0x1E5C JUMP JUMPDEST PUSH1 0x40 MLOAD DUP1 SWAP2 SUB SWAP1 LOG2 POP POP POP JUMP JUMPDEST DUP2 PUSH1 0x0 PUSH1 0x3 PUSH1 0x0 DUP4 PUSH8 0xFFFFFFFFFFFFFFFF AND PUSH8 0xFFFFFFFFFFFFFFFF AND DUP2 MSTORE PUSH1 0x20 ADD SWAP1 DUP2 MSTORE PUSH1 0x20 ADD PUSH1 0x0 KECCAK256 PUSH1 0x0 ADD PUSH1 0x0 SWAP1 SLOAD SWAP1 PUSH2 0x100 EXP SWAP1 DIV PUSH20 0xFFFFFFFFFFFFFFFFFFFFFFFFFFFFFFFFFFFFFFFF AND SWAP1 POP PUSH1 0x0 PUSH20 0xFFFFFFFFFFFFFFFFFFFFFFFFFFFFFFFFFFFFFFFF AND DUP2 PUSH20 0xFFFFFFFFFFFFFFFFFFFFFFFFFFFFFFFFFFFFFFFF AND EQ ISZERO PUSH2 0x1121 JUMPI PUSH1 0x40 MLOAD PUSH32 0x1F6A65B600000000000000000000000000000000000000000000000000000000 DUP2 MSTORE PUSH1 0x4 ADD PUSH1 0x40 MLOAD DUP1 SWAP2 SUB SWAP1 REVERT JUMPDEST DUP1 PUSH20 0xFFFFFFFFFFFFFFFFFFFFFFFFFFFFFFFFFFFFFFFF AND CALLER PUSH20 0xFFFFFFFFFFFFFFFFFFFFFFFFFFFFFFFFFFFFFFFF AND EQ PUSH2 0x1191 JUMPI DUP1 PUSH1 0x40 MLOAD PUSH32 0xD8A3FB5200000000000000000000000000000000000000000000000000000000 DUP2 MSTORE PUSH1 0x4 ADD PUSH2 0x1188 SWAP2 SWAP1 PUSH2 0x1DC4 JUMP JUMPDEST PUSH1 0x40 MLOAD DUP1 SWAP2 SUB SWAP1 REVERT JUMPDEST DUP4 PUSH8 0xFFFFFFFFFFFFFFFF AND PUSH32 0xE8ED5B475A5B5987AA9165E8731BB78043F39EEE32EC5A1169A89E27FCD49815 DUP5 PUSH1 0x3 PUSH1 0x0 DUP9 PUSH8 0xFFFFFFFFFFFFFFFF AND PUSH8 0xFFFFFFFFFFFFFFFF AND DUP2 MSTORE PUSH1 0x20 ADD SWAP1 DUP2 MSTORE PUSH1 0x20 ADD PUSH1 0x0 KECCAK256 PUSH1 0x0 ADD PUSH1 0x14 SWAP1 SLOAD SWAP1 PUSH2 0x100 EXP SWAP1 DIV PUSH12 0xFFFFFFFFFFFFFFFFFFFFFFFF AND PUSH1 0x40 MLOAD PUSH2 0x120F SWAP3 SWAP2 SWAP1 PUSH2 0x1E85 JUMP JUMPDEST PUSH1 0x40 MLOAD DUP1 SWAP2 SUB SWAP1 LOG2 PUSH1 0x3 PUSH1 0x0 DUP6 PUSH8 0xFFFFFFFFFFFFFFFF AND PUSH8 0xFFFFFFFFFFFFFFFF AND DUP2 MSTORE PUSH1 0x20 ADD SWAP1 DUP2 MSTORE PUSH1 0x20 ADD PUSH1 0x0 KECCAK256 PUSH1 0x0 DUP1 DUP3 ADD PUSH1 0x0 PUSH2 0x100 EXP DUP2 SLOAD SWAP1 PUSH20 0xFFFFFFFFFFFFFFFFFFFFFFFFFFFFFFFFFFFFFFFF MUL NOT AND SWAP1 SSTORE PUSH1 0x0 DUP3 ADD PUSH1 0x14 PUSH2 0x100 EXP DUP2 SLOAD SWAP1 PUSH12 0xFFFFFFFFFFFFFFFFFFFFFFFF MUL NOT AND SWAP1 SSTORE POP POP POP POP POP POP JUMP JUMPDEST PUSH1 0x0 PUSH2 0xFFFF DUP3 AND SWAP1 POP SWAP2 SWAP1 POP JUMP JUMPDEST PUSH2 0x12A4 DUP2 PUSH2 0x128D JUMP JUMPDEST DUP3 MSTORE POP POP JUMP JUMPDEST PUSH1 0x0 PUSH4 0xFFFFFFFF DUP3 AND SWAP1 POP SWAP2 SWAP1 POP JUMP JUMPDEST PUSH2 0x12C3 DUP2 PUSH2 0x12AA JUMP JUMPDEST DUP3 MSTORE POP POP JUMP JUMPDEST PUSH1 0x0 DUP2 MLOAD SWAP1 POP SWAP2 SWAP1 POP JUMP JUMPDEST PUSH1 0x0 DUP3 DUP3 MSTORE PUSH1 0x20 DUP3 ADD SWAP1 POP SWAP3 SWAP2 POP POP JUMP JUMPDEST PUSH1 0x0 DUP2 SWAP1 POP PUSH1 0x20 DUP3 ADD SWAP1 POP SWAP2 SWAP1 POP JUMP JUMPDEST PUSH1 0x0 DUP2 SWAP1 POP SWAP2 SWAP1 POP JUMP JUMPDEST PUSH2 0x1308 DUP2 PUSH2 0x12F5 JUMP JUMPDEST DUP3 MSTORE POP POP JUMP JUMPDEST PUSH1 0x0 PUSH2 0x131A DUP4 DUP4 PUSH2 0x12FF JUMP JUMPDEST PUSH1 0x20 DUP4 ADD SWAP1 POP SWAP3 SWAP2 POP POP JUMP JUMPDEST PUSH1 0x0 PUSH1 0x20 DUP3 ADD SWAP1 POP SWAP2 SWAP1 POP JUMP JUMPDEST PUSH1 0x0 PUSH2 0x133E DUP3 PUSH2 0x12C9 JUMP JUMPDEST PUSH2 0x1348 DUP2 DUP6 PUSH2 0x12D4 JUMP JUMPDEST SWAP4 POP PUSH2 0x1353 DUP4 PUSH2 0x12E5 JUMP JUMPDEST DUP1 PUSH1 0x0 JUMPDEST DUP4 DUP2 LT ISZERO PUSH2 0x1384 JUMPI DUP2 MLOAD PUSH2 0x136B DUP9 DUP3 PUSH2 0x130E JUMP JUMPDEST SWAP8 POP PUSH2 0x1376 DUP4 PUSH2 0x1326 JUMP JUMPDEST SWAP3 POP POP PUSH1 0x1 DUP2 ADD SWAP1 POP PUSH2 0x1357 JUMP JUMPDEST POP DUP6 SWAP4 POP POP POP POP SWAP3 SWAP2 POP POP JUMP JUMPDEST PUSH1 0x0 PUSH1 0x60 DUP3 ADD SWAP1 POP PUSH2 0x13A6 PUSH1 0x0 DUP4 ADD DUP7 PUSH2 0x129B JUMP JUMPDEST PUSH2 0x13B3 PUSH1 0x20 DUP4 ADD DUP6 PUSH2 0x12BA JUMP JUMPDEST DUP2 DUP2 SUB PUSH1 0x40 DUP4 ADD MSTORE PUSH2 0x13C5 DUP2 DUP5 PUSH2 0x1333 JUMP JUMPDEST SWAP1 POP SWAP5 SWAP4 POP POP POP POP JUMP JUMPDEST PUSH1 0x0 DUP1 REVERT JUMPDEST PUSH1 0x0 PUSH8 0xFFFFFFFFFFFFFFFF DUP3 AND SWAP1 POP SWAP2 SWAP1 POP JUMP JUMPDEST PUSH2 0x13F1 DUP2 PUSH2 0x13D4 JUMP JUMPDEST DUP2 EQ PUSH2 0x13FC JUMPI PUSH1 0x0 DUP1 REVERT JUMPDEST POP JUMP JUMPDEST PUSH1 0x0 DUP2 CALLDATALOAD SWAP1 POP PUSH2 0x140E DUP2 PUSH2 0x13E8 JUMP JUMPDEST SWAP3 SWAP2 POP POP JUMP JUMPDEST PUSH1 0x0 PUSH20 0xFFFFFFFFFFFFFFFFFFFFFFFFFFFFFFFFFFFFFFFF DUP3 AND SWAP1 POP SWAP2 SWAP1 POP JUMP JUMPDEST PUSH1 0x0 PUSH2 0x143F DUP3 PUSH2 0x1414 JUMP JUMPDEST SWAP1 POP SWAP2 SWAP1 POP JUMP JUMPDEST PUSH2 0x144F DUP2 PUSH2 0x1434 JUMP JUMPDEST DUP2 EQ PUSH2 0x145A JUMPI PUSH1 0x0 DUP1 REVERT JUMPDEST POP JUMP JUMPDEST PUSH1 0x0 DUP2 CALLDATALOAD SWAP1 POP PUSH2 0x146C DUP2 PUSH2 0x1446 JUMP JUMPDEST SWAP3 SWAP2 POP POP JUMP JUMPDEST PUSH1 0x0 DUP1 PUSH1 0x40 DUP4 DUP6 SUB SLT ISZERO PUSH2 0x1489 JUMPI PUSH2 0x1488 PUSH2 0x13CF JUMP JUMPDEST JUMPDEST PUSH1 0x0 PUSH2 0x1497 DUP6 DUP3 DUP7 ADD PUSH2 0x13FF JUMP JUMPDEST SWAP3 POP POP PUSH1 0x20 PUSH2 0x14A8 DUP6 DUP3 DUP7 ADD PUSH2 0x145D JUMP JUMPDEST SWAP2 POP POP SWAP3 POP SWAP3 SWAP1 POP JUMP JUMPDEST PUSH1 0x0 PUSH12 0xFFFFFFFFFFFFFFFFFFFFFFFF DUP3 AND SWAP1 POP SWAP2 SWAP1 POP JUMP JUMPDEST PUSH2 0x14D3 DUP2 PUSH2 0x14B2 JUMP JUMPDEST DUP3 MSTORE POP POP JUMP JUMPDEST PUSH1 0x0 PUSH1 0x20 DUP3 ADD SWAP1 POP PUSH2 0x14EE PUSH1 0x0 DUP4 ADD DUP5 PUSH2 0x14CA JUMP JUMPDEST SWAP3 SWAP2 POP POP JUMP JUMPDEST PUSH2 0x14FD DUP2 PUSH2 0x12F5 JUMP JUMPDEST DUP2 EQ PUSH2 0x1508 JUMPI PUSH1 0x0 DUP1 REVERT JUMPDEST POP JUMP JUMPDEST PUSH1 0x0 DUP2 CALLDATALOAD SWAP1 POP PUSH2 0x151A DUP2 PUSH2 0x14F4 JUMP JUMPDEST SWAP3 SWAP2 POP POP JUMP JUMPDEST PUSH2 0x1529 DUP2 PUSH2 0x128D JUMP JUMPDEST DUP2 EQ PUSH2 0x1534 JUMPI PUSH1 0x0 DUP1 REVERT JUMPDEST POP JUMP JUMPDEST PUSH1 0x0 DUP2 CALLDATALOAD SWAP1 POP PUSH2 0x1546 DUP2 PUSH2 0x1520 JUMP JUMPDEST SWAP3 SWAP2 POP POP JUMP JUMPDEST PUSH2 0x1555 DUP2 PUSH2 0x12AA JUMP JUMPDEST DUP2 EQ PUSH2 0x1560 JUMPI PUSH1 0x0 DUP1 REVERT JUMPDEST POP JUMP JUMPDEST PUSH1 0x0 DUP2 CALLDATALOAD SWAP1 POP PUSH2 0x1572 DUP2 PUSH2 0x154C JUMP JUMPDEST SWAP3 SWAP2 POP POP JUMP JUMPDEST PUSH1 0x0 DUP1 PUSH1 0x0 DUP1 PUSH1 0x0 PUSH1 0xA0 DUP7 DUP9 SUB SLT ISZERO PUSH2 0x1594 JUMPI PUSH2 0x1593 PUSH2 0x13CF JUMP JUMPDEST JUMPDEST PUSH1 0x0 PUSH2 0x15A2 DUP9 DUP3 DUP10 ADD PUSH2 0x150B JUMP JUMPDEST SWAP6 POP POP PUSH1 0x20 PUSH2 0x15B3 DUP9 DUP3 DUP10 ADD PUSH2 0x13FF JUMP JUMPDEST SWAP5 POP POP PUSH1 0x40 PUSH2 0x15C4 DUP9 DUP3 DUP10 ADD PUSH2 0x1537 JUMP JUMPDEST SWAP4 POP POP PUSH1 0x60 PUSH2 0x15D5 DUP9 DUP3 DUP10 ADD PUSH2 0x1563 JUMP JUMPDEST SWAP3 POP POP PUSH1 0x80 PUSH2 0x15E6 DUP9 DUP3 DUP10 ADD PUSH2 0x1563 JUMP JUMPDEST SWAP2 POP POP SWAP3 SWAP6 POP SWAP3 SWAP6 SWAP1 SWAP4 POP JUMP JUMPDEST PUSH1 0x0 DUP2 SWAP1 POP SWAP2 SWAP1 POP JUMP JUMPDEST PUSH2 0x1606 DUP2 PUSH2 0x15F3 JUMP JUMPDEST DUP3 MSTORE POP POP JUMP JUMPDEST PUSH1 0x0 PUSH1 0x20 DUP3 ADD SWAP1 POP PUSH2 0x1621 PUSH1 0x0 DUP4 ADD DUP5 PUSH2 0x15FD JUMP JUMPDEST SWAP3 SWAP2 POP POP JUMP JUMPDEST PUSH2 0x1630 DUP2 PUSH2 0x15F3 JUMP JUMPDEST DUP2 EQ PUSH2 0x163B JUMPI PUSH1 0x0 DUP1 REVERT JUMPDEST POP JUMP JUMPDEST PUSH1 0x0 DUP2 CALLDATALOAD SWAP1 POP PUSH2 0x164D DUP2 PUSH2 0x1627 JUMP JUMPDEST SWAP3 SWAP2 POP POP JUMP JUMPDEST PUSH1 0x0 DUP1 PUSH1 0x40 DUP4 DUP6 SUB SLT ISZERO PUSH2 0x166A JUMPI PUSH2 0x1669 PUSH2 0x13CF JUMP JUMPDEST JUMPDEST PUSH1 0x0 PUSH2 0x1678 DUP6 DUP3 DUP7 ADD PUSH2 0x163E JUMP JUMPDEST SWAP3 POP POP PUSH1 0x20 PUSH2 0x1689 DUP6 DUP3 DUP7 ADD PUSH2 0x145D JUMP JUMPDEST SWAP2 POP POP SWAP3 POP SWAP3 SWAP1 POP JUMP JUMPDEST PUSH1 0x0 PUSH1 0x20 DUP3 DUP5 SUB SLT ISZERO PUSH2 0x16A9 JUMPI PUSH2 0x16A8 PUSH2 0x13CF JUMP JUMPDEST JUMPDEST PUSH1 0x0 PUSH2 0x16B7 DUP5 DUP3 DUP6 ADD PUSH2 0x13FF JUMP JUMPDEST SWAP2 POP POP SWAP3 SWAP2 POP POP JUMP JUMPDEST PUSH2 0x16C9 DUP2 PUSH2 0x13D4 JUMP JUMPDEST DUP3 MSTORE POP POP JUMP JUMPDEST PUSH1 0x0 PUSH1 0x20 DUP3 ADD SWAP1 POP PUSH2 0x16E4 PUSH1 0x0 DUP4 ADD DUP5 PUSH2 0x16C0 JUMP JUMPDEST SWAP3 SWAP2 POP POP JUMP JUMPDEST PUSH2 0x16F3 DUP2 PUSH2 0x1434 JUMP JUMPDEST DUP3 MSTORE POP POP JUMP JUMPDEST PUSH1 0x0 DUP2 MLOAD SWAP1 POP SWAP2 SWAP1 POP JUMP JUMPDEST PUSH1 0x0 DUP3 DUP3 MSTORE PUSH1 0x20 DUP3 ADD SWAP1 POP SWAP3 SWAP2 POP POP JUMP JUMPDEST PUSH1 0x0 DUP2 SWAP1 POP PUSH1 0x20 DUP3 ADD SWAP1 POP SWAP2 SWAP1 POP JUMP JUMPDEST PUSH2 0x172E DUP2 PUSH2 0x1434 JUMP JUMPDEST DUP3 MSTORE POP POP JUMP JUMPDEST PUSH1 0x0 PUSH2 0x1740 DUP4 DUP4 PUSH2 0x1725 JUMP JUMPDEST PUSH1 0x20 DUP4 ADD SWAP1 POP SWAP3 SWAP2 POP POP JUMP JUMPDEST PUSH1 0x0 PUSH1 0x20 DUP3 ADD SWAP1 POP SWAP2 SWAP1 POP JUMP JUMPDEST PUSH1 0x0 PUSH2 0x1764 DUP3 PUSH2 0x16F9 JUMP JUMPDEST PUSH2 0x176E DUP2 DUP6 PUSH2 0x1704 JUMP JUMPDEST SWAP4 POP PUSH2 0x1779 DUP4 PUSH2 0x1715 JUMP JUMPDEST DUP1 PUSH1 0x0 JUMPDEST DUP4 DUP2 LT ISZERO PUSH2 0x17AA JUMPI DUP2 MLOAD PUSH2 0x1791 DUP9 DUP3 PUSH2 0x1734 JUMP JUMPDEST SWAP8 POP PUSH2 0x179C DUP4 PUSH2 0x174C JUMP JUMPDEST SWAP3 POP POP PUSH1 0x1 DUP2 ADD SWAP1 POP PUSH2 0x177D JUMP JUMPDEST POP DUP6 SWAP4 POP POP POP POP SWAP3 SWAP2 POP POP JUMP JUMPDEST PUSH1 0x0 PUSH1 0x80 DUP3 ADD SWAP1 POP PUSH2 0x17CC PUSH1 0x0 DUP4 ADD DUP8 PUSH2 0x14CA JUMP JUMPDEST PUSH2 0x17D9 PUSH1 0x20 DUP4 ADD DUP7 PUSH2 0x16C0 JUMP JUMPDEST PUSH2 0x17E6 PUSH1 0x40 DUP4 ADD DUP6 PUSH2 0x16EA JUMP JUMPDEST DUP2 DUP2 SUB PUSH1 0x60 DUP4 ADD MSTORE PUSH2 0x17F8 DUP2 DUP5 PUSH2 0x1759 JUMP JUMPDEST SWAP1 POP SWAP6 SWAP5 POP POP POP POP POP JUMP JUMPDEST PUSH2 0x180C DUP2 PUSH2 0x14B2 JUMP JUMPDEST DUP2 EQ PUSH2 0x1817 JUMPI PUSH1 0x0 DUP1 REVERT JUMPDEST POP JUMP JUMPDEST PUSH1 0x0 DUP2 CALLDATALOAD SWAP1 POP PUSH2 0x1829 DUP2 PUSH2 0x1803 JUMP JUMPDEST SWAP3 SWAP2 POP POP JUMP JUMPDEST PUSH1 0x0 DUP1 PUSH1 0x40 DUP4 DUP6 SUB SLT ISZERO PUSH2 0x1846 JUMPI PUSH2 0x1845 PUSH2 0x13CF JUMP JUMPDEST JUMPDEST PUSH1 0x0 PUSH2 0x1854 DUP6 DUP3 DUP7 ADD PUSH2 0x13FF JUMP JUMPDEST SWAP3 POP POP PUSH1 0x20 PUSH2 0x1865 DUP6 DUP3 DUP7 ADD PUSH2 0x181A JUMP JUMPDEST SWAP2 POP POP SWAP3 POP SWAP3 SWAP1 POP JUMP JUMPDEST PUSH32 0x4E487B7100000000000000000000000000000000000000000000000000000000 PUSH1 0x0 MSTORE PUSH1 0x41 PUSH1 0x4 MSTORE PUSH1 0x24 PUSH1 0x0 REVERT JUMPDEST PUSH1 0x0 DUP3 DUP3 MSTORE PUSH1 0x20 DUP3 ADD SWAP1 POP SWAP3 SWAP2 POP POP JUMP JUMPDEST PUSH32 0x6E6F7420696D706C656D656E7465640000000000000000000000000000000000 PUSH1 0x0 DUP3 ADD MSTORE POP JUMP JUMPDEST PUSH1 0x0 PUSH2 0x18E5 PUSH1 0xF DUP4 PUSH2 0x189E JUMP JUMPDEST SWAP2 POP PUSH2 0x18F0 DUP3 PUSH2 0x18AF JUMP JUMPDEST PUSH1 0x20 DUP3 ADD SWAP1 POP SWAP2 SWAP1 POP JUMP JUMPDEST PUSH1 0x0 PUSH1 0x20 DUP3 ADD SWAP1 POP DUP2 DUP2 SUB PUSH1 0x0 DUP4 ADD MSTORE PUSH2 0x1914 DUP2 PUSH2 0x18D8 JUMP JUMPDEST SWAP1 POP SWAP2 SWAP1 POP JUMP JUMPDEST PUSH32 0x4E487B7100000000000000000000000000000000000000000000000000000000 PUSH1 0x0 MSTORE PUSH1 0x11 PUSH1 0x4 MSTORE PUSH1 0x24 PUSH1 0x0 REVERT JUMPDEST PUSH1 0x0 PUSH2 0x1955 DUP3 PUSH2 0x15F3 JUMP JUMPDEST SWAP2 POP PUSH32 0xFFFFFFFFFFFFFFFFFFFFFFFFFFFFFFFFFFFFFFFFFFFFFFFFFFFFFFFFFFFFFFFF DUP3 EQ ISZERO PUSH2 0x1988 JUMPI PUSH2 0x1987 PUSH2 0x191B JUMP JUMPDEST JUMPDEST PUSH1 0x1 DUP3 ADD SWAP1 POP SWAP2 SWAP1 POP JUMP JUMPDEST PUSH1 0x0 PUSH1 0xA0 DUP3 ADD SWAP1 POP PUSH2 0x19A8 PUSH1 0x0 DUP4 ADD DUP9 PUSH2 0x15FD JUMP JUMPDEST PUSH2 0x19B5 PUSH1 0x20 DUP4 ADD DUP8 PUSH2 0x15FD JUMP JUMPDEST PUSH2 0x19C2 PUSH1 0x40 DUP4 ADD DUP7 PUSH2 0x129B JUMP JUMPDEST PUSH2 0x19CF PUSH1 0x60 DUP4 ADD DUP6 PUSH2 0x12BA JUMP JUMPDEST PUSH2 0x19DC PUSH1 0x80 DUP4 ADD DUP5 PUSH2 0x12BA JUMP JUMPDEST SWAP7 SWAP6 POP POP POP POP POP POP JUMP JUMPDEST PUSH32 0x6E6F6E6578697374656E74207265717565737400000000000000000000000000 PUSH1 0x0 DUP3 ADD MSTORE POP JUMP JUMPDEST PUSH1 0x0 PUSH2 0x1A1C PUSH1 0x13 DUP4 PUSH2 0x189E JUMP JUMPDEST SWAP2 POP PUSH2 0x1A27 DUP3 PUSH2 0x19E6 JUMP JUMPDEST PUSH1 0x20 DUP3 ADD SWAP1 POP SWAP2 SWAP1 POP JUMP JUMPDEST PUSH1 0x0 PUSH1 0x20 DUP3 ADD SWAP1 POP DUP2 DUP2 SUB PUSH1 0x0 DUP4 ADD MSTORE PUSH2 0x1A4B DUP2 PUSH2 0x1A0F JUMP JUMPDEST SWAP1 POP SWAP2 SWAP1 POP JUMP JUMPDEST PUSH1 0x0 PUSH1 0x40 DUP3 ADD SWAP1 POP PUSH2 0x1A67 PUSH1 0x0 DUP4 ADD DUP6 PUSH2 0x15FD JUMP JUMPDEST PUSH2 0x1A74 PUSH1 0x20 DUP4 ADD DUP5 PUSH2 0x15FD JUMP JUMPDEST SWAP4 SWAP3 POP POP POP JUMP JUMPDEST PUSH32 0x4E487B7100000000000000000000000000000000000000000000000000000000 PUSH1 0x0 MSTORE PUSH1 0x32 PUSH1 0x4 MSTORE PUSH1 0x24 PUSH1 0x0 REVERT JUMPDEST PUSH1 0x0 DUP2 MLOAD SWAP1 POP SWAP2 SWAP1 POP JUMP JUMPDEST PUSH1 0x0 DUP3 DUP3 MSTORE PUSH1 0x20 DUP3 ADD SWAP1 POP SWAP3 SWAP2 POP POP JUMP JUMPDEST PUSH1 0x0 DUP2 SWAP1 POP PUSH1 0x20 DUP3 ADD SWAP1 POP SWAP2 SWAP1 POP JUMP JUMPDEST PUSH2 0x1ADF DUP2 PUSH2 0x15F3 JUMP JUMPDEST DUP3 MSTORE POP POP JUMP JUMPDEST PUSH1 0x0 PUSH2 0x1AF1 DUP4 DUP4 PUSH2 0x1AD6 JUMP JUMPDEST PUSH1 0x20 DUP4 ADD SWAP1 POP SWAP3 SWAP2 POP POP JUMP JUMPDEST PUSH1 0x0 PUSH1 0x20 DUP3 ADD SWAP1 POP SWAP2 SWAP1 POP JUMP JUMPDEST PUSH1 0x0 PUSH2 0x1B15 DUP3 PUSH2 0x1AAA JUMP JUMPDEST PUSH2 0x1B1F DUP2 DUP6 PUSH2 0x1AB5 JUMP JUMPDEST SWAP4 POP PUSH2 0x1B2A DUP4 PUSH2 0x1AC6 JUMP JUMPDEST DUP1 PUSH1 0x0 JUMPDEST DUP4 DUP2 LT ISZERO PUSH2 0x1B5B JUMPI DUP2 MLOAD PUSH2 0x1B42 DUP9 DUP3 PUSH2 0x1AE5 JUMP JUMPDEST SWAP8 POP PUSH2 0x1B4D DUP4 PUSH2 0x1AFD JUMP JUMPDEST SWAP3 POP POP PUSH1 0x1 DUP2 ADD SWAP1 POP PUSH2 0x1B2E JUMP JUMPDEST POP DUP6 SWAP4 POP POP POP POP SWAP3 SWAP2 POP POP JUMP JUMPDEST PUSH1 0x0 PUSH1 0x40 DUP3 ADD SWAP1 POP PUSH2 0x1B7D PUSH1 0x0 DUP4 ADD DUP6 PUSH2 0x15FD JUMP JUMPDEST DUP2 DUP2 SUB PUSH1 0x20 DUP4 ADD MSTORE PUSH2 0x1B8F DUP2 DUP5 PUSH2 0x1B0A JUMP JUMPDEST SWAP1 POP SWAP4 SWAP3 POP POP POP JUMP JUMPDEST PUSH1 0x0 DUP2 MLOAD SWAP1 POP SWAP2 SWAP1 POP JUMP JUMPDEST PUSH1 0x0 DUP2 SWAP1 POP SWAP3 SWAP2 POP POP JUMP JUMPDEST PUSH1 0x0 JUMPDEST DUP4 DUP2 LT ISZERO PUSH2 0x1BCC JUMPI DUP1 DUP3 ADD MLOAD DUP2 DUP5 ADD MSTORE PUSH1 0x20 DUP2 ADD SWAP1 POP PUSH2 0x1BB1 JUMP JUMPDEST DUP4 DUP2 GT ISZERO PUSH2 0x1BDB JUMPI PUSH1 0x0 DUP5 DUP5 ADD MSTORE JUMPDEST POP POP POP POP JUMP JUMPDEST PUSH1 0x0 PUSH2 0x1BEC DUP3 PUSH2 0x1B98 JUMP JUMPDEST PUSH2 0x1BF6 DUP2 DUP6 PUSH2 0x1BA3 JUMP JUMPDEST SWAP4 POP PUSH2 0x1C06 DUP2 DUP6 PUSH1 0x20 DUP7 ADD PUSH2 0x1BAE JUMP JUMPDEST DUP1 DUP5 ADD SWAP2 POP POP SWAP3 SWAP2 POP POP JUMP JUMPDEST PUSH1 0x0 PUSH2 0x1C1E DUP3 DUP5 PUSH2 0x1BE1 JUMP JUMPDEST SWAP2 POP DUP2 SWAP1 POP SWAP3 SWAP2 POP POP JUMP JUMPDEST PUSH1 0x0 PUSH2 0x1C34 DUP3 PUSH2 0x15F3 JUMP JUMPDEST SWAP2 POP PUSH2 0x1C3F DUP4 PUSH2 0x15F3 JUMP JUMPDEST SWAP3 POP DUP3 DUP3 LT ISZERO PUSH2 0x1C52 JUMPI PUSH2 0x1C51 PUSH2 0x191B JUMP JUMPDEST JUMPDEST DUP3 DUP3 SUB SWAP1 POP SWAP3 SWAP2 POP POP JUMP JUMPDEST PUSH1 0x0 PUSH2 0x1C68 DUP3 PUSH2 0x15F3 JUMP JUMPDEST SWAP2 POP PUSH2 0x1C73 DUP4 PUSH2 0x15F3 JUMP JUMPDEST SWAP3 POP DUP2 PUSH32 0xFFFFFFFFFFFFFFFFFFFFFFFFFFFFFFFFFFFFFFFFFFFFFFFFFFFFFFFFFFFFFFFF DIV DUP4 GT DUP3 ISZERO ISZERO AND ISZERO PUSH2 0x1CAC JUMPI PUSH2 0x1CAB PUSH2 0x191B JUMP JUMPDEST JUMPDEST DUP3 DUP3 MUL SWAP1 POP SWAP3 SWAP2 POP POP JUMP JUMPDEST PUSH1 0x0 PUSH2 0x1CC2 DUP3 PUSH2 0x15F3 JUMP JUMPDEST SWAP2 POP PUSH2 0x1CCD DUP4 PUSH2 0x15F3 JUMP JUMPDEST SWAP3 POP DUP3 PUSH32 0xFFFFFFFFFFFFFFFFFFFFFFFFFFFFFFFFFFFFFFFFFFFFFFFFFFFFFFFFFFFFFFFF SUB DUP3 GT ISZERO PUSH2 0x1D02 JUMPI PUSH2 0x1D01 PUSH2 0x191B JUMP JUMPDEST JUMPDEST DUP3 DUP3 ADD SWAP1 POP SWAP3 SWAP2 POP POP JUMP JUMPDEST PUSH1 0x0 PUSH2 0x1D18 DUP3 PUSH2 0x14B2 JUMP JUMPDEST SWAP2 POP PUSH2 0x1D23 DUP4 PUSH2 0x14B2 JUMP JUMPDEST SWAP3 POP DUP3 DUP3 LT ISZERO PUSH2 0x1D36 JUMPI PUSH2 0x1D35 PUSH2 0x191B JUMP JUMPDEST JUMPDEST DUP3 DUP3 SUB SWAP1 POP SWAP3 SWAP2 POP POP JUMP JUMPDEST PUSH1 0x0 DUP2 ISZERO ISZERO SWAP1 POP SWAP2 SWAP1 POP JUMP JUMPDEST PUSH2 0x1D56 DUP2 PUSH2 0x1D41 JUMP JUMPDEST DUP3 MSTORE POP POP JUMP JUMPDEST PUSH1 0x0 PUSH1 0x60 DUP3 ADD SWAP1 POP PUSH2 0x1D71 PUSH1 0x0 DUP4 ADD DUP7 PUSH2 0x15FD JUMP JUMPDEST PUSH2 0x1D7E PUSH1 0x20 DUP4 ADD DUP6 PUSH2 0x14CA JUMP JUMPDEST PUSH2 0x1D8B PUSH1 0x40 DUP4 ADD DUP5 PUSH2 0x1D4D JUMP JUMPDEST SWAP5 SWAP4 POP POP POP POP JUMP JUMPDEST PUSH1 0x0 PUSH2 0x1D9E DUP3 PUSH2 0x13D4 JUMP JUMPDEST SWAP2 POP PUSH8 0xFFFFFFFFFFFFFFFF DUP3 EQ ISZERO PUSH2 0x1DB9 JUMPI PUSH2 0x1DB8 PUSH2 0x191B JUMP JUMPDEST JUMPDEST PUSH1 0x1 DUP3 ADD SWAP1 POP SWAP2 SWAP1 POP JUMP JUMPDEST PUSH1 0x0 PUSH1 0x20 DUP3 ADD SWAP1 POP PUSH2 0x1DD9 PUSH1 0x0 DUP4 ADD DUP5 PUSH2 0x16EA JUMP JUMPDEST SWAP3 SWAP2 POP POP JUMP JUMPDEST PUSH1 0x0 PUSH2 0x1DEA DUP3 PUSH2 0x14B2 JUMP JUMPDEST SWAP2 POP PUSH2 0x1DF5 DUP4 PUSH2 0x14B2 JUMP JUMPDEST SWAP3 POP DUP3 PUSH12 0xFFFFFFFFFFFFFFFFFFFFFFFF SUB DUP3 GT ISZERO PUSH2 0x1E16 JUMPI PUSH2 0x1E15 PUSH2 0x191B JUMP JUMPDEST JUMPDEST DUP3 DUP3 ADD SWAP1 POP SWAP3 SWAP2 POP POP JUMP JUMPDEST PUSH1 0x0 DUP2 SWAP1 POP SWAP2 SWAP1 POP JUMP JUMPDEST PUSH1 0x0 PUSH2 0x1E46 PUSH2 0x1E41 PUSH2 0x1E3C DUP5 PUSH2 0x14B2 JUMP JUMPDEST PUSH2 0x1E21 JUMP JUMPDEST PUSH2 0x15F3 JUMP JUMPDEST SWAP1 POP SWAP2 SWAP1 POP JUMP JUMPDEST PUSH2 0x1E56 DUP2 PUSH2 0x1E2B JUMP JUMPDEST DUP3 MSTORE POP POP JUMP JUMPDEST PUSH1 0x0 PUSH1 0x40 DUP3 ADD SWAP1 POP PUSH2 0x1E71 PUSH1 0x0 DUP4 ADD DUP6 PUSH2 0x1E4D JUMP JUMPDEST PUSH2 0x1E7E PUSH1 0x20 DUP4 ADD DUP5 PUSH2 0x1E4D JUMP JUMPDEST SWAP4 SWAP3 POP POP POP JUMP JUMPDEST PUSH1 0x0 PUSH1 0x40 DUP3 ADD SWAP1 POP PUSH2 0x1E9A PUSH1 0x0 DUP4 ADD DUP6 PUSH2 0x16EA JUMP JUMPDEST PUSH2 0x1EA7 PUSH1 0x20 DUP4 ADD DUP5 PUSH2 0x1E4D JUMP JUMPDEST SWAP4 SWAP3 POP POP POP JUMP INVALID LOG2 PUSH5 0x6970667358 0x22 SLT KECCAK256 0xE9 0x4F SMOD RETURN 0xE4 0xBB PUSH18 0xDAE8E3EADBFE05F98643CA236F2AEF48270E SHL SWAP7 0x2A CALLER 0xEC XOR 0xBD PUSH5 0x736F6C6343 STOP ADDMOD ADDMOD STOP CALLER "},"gasEstimates":{"creation":{"codeDepositCost":"1581600","executionCost":"infinite","totalCost":"infinite"},"external":{"BASE_FEE()":"infinite","GAS_PRICE_LINK()":"infinite","acceptSubscriptionOwnerTransfer(uint64)":"723","addConsumer(uint64,address)":"1009","cancelSubscription(uint64,address)":"infinite","createSubscription()":"infinite","fulfillRandomWords(uint256,address)":"infinite","fundSubscription(uint64,uint96)":"infinite","getRequestConfig()":"885","getSubscription(uint64)":"infinite","removeConsumer(uint64,address)":"965","requestRandomWords(bytes32,uint64,uint16,uint32,uint32)":"infinite","requestSubscriptionOwnerTransfer(uint64,address)":"943"}},"methodIdentifiers":{"BASE_FEE()":"3d18651e","GAS_PRICE_LINK()":"a410347f","acceptSubscriptionOwnerTransfer(uint64)":"82359740","addConsumer(uint64,address)":"7341c10c","cancelSubscription(uint64,address)":"d7ae1d30","createSubscription()":"a21a23e4","fulfillRandomWords(uint256,address)":"808974ff","fundSubscription(uint64,uint96)":"afc69b53","getRequestConfig()":"00012291","getSubscription(uint64)":"a47c7696","removeConsumer(uint64,address)":"9f87fad7","requestRandomWords(bytes32,uint64,uint16,uint32,uint32)":"5d3b1d30","requestSubscriptionOwnerTransfer(uint64,address)":"04c357cb"}},"storageLayout":{"storage":[{"astId":358,"contract":"@chainlink/contracts/src/v0.8/mocks/VRFCoordinatorV2Mock.sol:VRFCoordinatorV2Mock","label":"s_currentSubId","offset":0,"slot":"0","type":"t_uint64"},{"astId":361,"contract":"@chainlink/contracts/src/v0.8/mocks/VRFCoordinatorV2Mock.sol:VRFCoordinatorV2Mock","label":"s_nextRequestId","offset":0,"slot":"1","type":"t_uint256"},{"astId":364,"contract":"@chainlink/contracts/src/v0.8/mocks/VRFCoordinatorV2Mock.sol:VRFCoordinatorV2Mock","label":"s_nextPreSeed","offset":0,"slot":"2","type":"t_uint256"},{"astId":374,"contract":"@chainlink/contracts/src/v0.8/mocks/VRFCoordinatorV2Mock.sol:VRFCoordinatorV2Mock","label":"s_subscriptions","offset":0,"slot":"3","type":"t_mapping(t_uint64,t_struct(Subscription)369_storage)"},{"astId":386,"contract":"@chainlink/contracts/src/v0.8/mocks/VRFCoordinatorV2Mock.sol:VRFCoordinatorV2Mock","label":"s_requests","offset":0,"slot":"4","type":"t_mapping(t_uint256,t_struct(Request)381_storage)"}],"types":{"t_address":{"encoding":"inplace","label":"address","numberOfBytes":"20"},"t_mapping(t_uint256,t_struct(Request)381_storage)":{"encoding":"mapping","key":"t_uint256","label":"mapping(uint256 => struct VRFCoordinatorV2Mock.Request)","numberOfBytes":"32","value":"t_struct(Request)381_storage"},"t_mapping(t_uint64,t_struct(Subscription)369_storage)":{"encoding":"mapping","key":"t_uint64","label":"mapping(uint64 => struct VRFCoordinatorV2Mock.Subscription)","numberOfBytes":"32","value":"t_struct(Subscription)369_storage"},"t_struct(Request)381_storage":{"encoding":"inplace","label":"struct VRFCoordinatorV2Mock.Request","members":[{"astId":376,"contract":"@chainlink/contracts/src/v0.8/mocks/VRFCoordinatorV2Mock.sol:VRFCoordinatorV2Mock","label":"subId","offset":0,"slot":"0","type":"t_uint64"},{"astId":378,"contract":"@chainlink/contracts/src/v0.8/mocks/VRFCoordinatorV2Mock.sol:VRFCoordinatorV2Mock","label":"callbackGasLimit","offset":8,"slot":"0","type":"t_uint32"},{"astId":380,"contract":"@chainlink/contracts/src/v0.8/mocks/VRFCoordinatorV2Mock.sol:VRFCoordinatorV2Mock","label":"numWords","offset":12,"slot":"0","type":"t_uint32"}],"numberOfBytes":"32"},"t_struct(Subscription)369_storage":{"encoding":"inplace","label":"struct VRFCoordinatorV2Mock.Subscription","members":[{"astId":366,"contract":"@chainlink/contracts/src/v0.8/mocks/VRFCoordinatorV2Mock.sol:VRFCoordinatorV2Mock","label":"owner","offset":0,"slot":"0","type":"t_address"},{"astId":368,"contract":"@chainlink/contracts/src/v0.8/mocks/VRFCoordinatorV2Mock.sol:VRFCoordinatorV2Mock","label":"balance","offset":20,"slot":"0","type":"t_uint96"}],"numberOfBytes":"32"},"t_uint256":{"encoding":"inplace","label":"uint256","numberOfBytes":"32"},"t_uint32":{"encoding":"inplace","label":"uint32","numberOfBytes":"4"},"t_uint64":{"encoding":"inplace","label":"uint64","numberOfBytes":"8"},"t_uint96":{"encoding":"inplace","label":"uint96","numberOfBytes":"12"}}},"userdoc":{"kind":"user","methods":{"createSubscription()":{"notice":"Create a VRF subscription."},"fulfillRandomWords(uint256,address)":{"notice":"fulfillRandomWords fulfills the given request, sending the random words to the suppliedconsumer."},"fundSubscription(uint64,uint96)":{"notice":"fundSubscription allows funding a subscription with an arbitrary amount for testing."},"getRequestConfig()":{"notice":"Get configuration relevant for making requests"}},"version":1}}}}