{
  "_format": "hh-sol-artifact-1",
  "contractName": "DynamicSvgNft",
  "sourceName": "contracts/DynamicSvgNft.sol",
  "abi": [
    {
      "inputs": [
        {
          "internalType": "address",
          "name": "priceFeedAddress",
          "type": "address"
        },
        {
          "internalType": "string",
          "name": "lowSvg",
          "type": "string"
        },
        {
          "internalType": "string",
          "name": "highSvg",
          "type": "string"
        }
      ],
      "stateMutability": "nonpayable",
      "type": "constructor"
    },
    {
      "anonymous": false,
      "inputs": [
        {
          "indexed": true,
          "internalType": "address",
          "name": "owner",
          "type": "address"
        },
        {
          "indexed": true,
          "internalType": "address",
          "name": "approved",
          "type": "address"
        },
        {
          "indexed": true,
          "internalType": "uint256",
          "name": "tokenId",
          "type": "uint256"
        }
      ],
      "name": "Approval",
      "type": "event"
    },
    {
      "anonymous": false,
      "inputs": [
        {
          "indexed": true,
          "internalType": "address",
          "name": "owner",
          "type": "address"
        },
        {
          "indexed": true,
          "internalType": "address",
          "name": "operator",
          "type": "address"
        },
        {
          "indexed": false,
          "internalType": "bool",
          "name": "approved",
          "type": "bool"
        }
      ],
      "name": "ApprovalForAll",
      "type": "event"
    },
    {
      "anonymous": false,
      "inputs": [
        {
          "indexed": true,
          "internalType": "uint256",
          "name": "tokenId",
          "type": "uint256"
        },
        {
          "indexed": false,
          "internalType": "int256",
          "name": "highvalue",
          "type": "int256"
        }
      ],
      "name": "CreatedNFT",
      "type": "event"
    },
    {
      "anonymous": false,
      "inputs": [
        {
          "indexed": true,
          "internalType": "address",
          "name": "from",
          "type": "address"
        },
        {
          "indexed": true,
          "internalType": "address",
          "name": "to",
          "type": "address"
        },
        {
          "indexed": true,
          "internalType": "uint256",
          "name": "tokenId",
          "type": "uint256"
        }
      ],
      "name": "Transfer",
      "type": "event"
    },
    {
      "inputs": [
        {
          "internalType": "address",
          "name": "to",
          "type": "address"
        },
        {
          "internalType": "uint256",
          "name": "tokenId",
          "type": "uint256"
        }
      ],
      "name": "approve",
      "outputs": [],
      "stateMutability": "nonpayable",
      "type": "function"
    },
    {
      "inputs": [
        {
          "internalType": "address",
          "name": "owner",
          "type": "address"
        }
      ],
      "name": "balanceOf",
      "outputs": [
        {
          "internalType": "uint256",
          "name": "",
          "type": "uint256"
        }
      ],
      "stateMutability": "view",
      "type": "function"
    },
    {
      "inputs": [
        {
          "internalType": "uint256",
          "name": "tokenId",
          "type": "uint256"
        }
      ],
      "name": "getApproved",
      "outputs": [
        {
          "internalType": "address",
          "name": "",
          "type": "address"
        }
      ],
      "stateMutability": "view",
      "type": "function"
    },
    {
      "inputs": [
        {
          "internalType": "address",
          "name": "owner",
          "type": "address"
        },
        {
          "internalType": "address",
          "name": "operator",
          "type": "address"
        }
      ],
      "name": "isApprovedForAll",
      "outputs": [
        {
          "internalType": "bool",
          "name": "",
          "type": "bool"
        }
      ],
      "stateMutability": "view",
      "type": "function"
    },
    {
      "inputs": [
        {
          "internalType": "int256",
          "name": "highvalue",
          "type": "int256"
        }
      ],
      "name": "mintNft",
      "outputs": [],
      "stateMutability": "nonpayable",
      "type": "function"
    },
    {
      "inputs": [],
      "name": "name",
      "outputs": [
        {
          "internalType": "string",
          "name": "",
          "type": "string"
        }
      ],
      "stateMutability": "view",
      "type": "function"
    },
    {
      "inputs": [
        {
          "internalType": "uint256",
          "name": "tokenId",
          "type": "uint256"
        }
      ],
      "name": "ownerOf",
      "outputs": [
        {
          "internalType": "address",
          "name": "",
          "type": "address"
        }
      ],
      "stateMutability": "view",
      "type": "function"
    },
    {
      "inputs": [
        {
          "internalType": "uint256",
          "name": "",
          "type": "uint256"
        }
      ],
      "name": "s_tokenIdToHighValue",
      "outputs": [
        {
          "internalType": "int256",
          "name": "",
          "type": "int256"
        }
      ],
      "stateMutability": "view",
      "type": "function"
    },
    {
      "inputs": [
        {
          "internalType": "address",
          "name": "from",
          "type": "address"
        },
        {
          "internalType": "address",
          "name": "to",
          "type": "address"
        },
        {
          "internalType": "uint256",
          "name": "tokenId",
          "type": "uint256"
        }
      ],
      "name": "safeTransferFrom",
      "outputs": [],
      "stateMutability": "nonpayable",
      "type": "function"
    },
    {
      "inputs": [
        {
          "internalType": "address",
          "name": "from",
          "type": "address"
        },
        {
          "internalType": "address",
          "name": "to",
          "type": "address"
        },
        {
          "internalType": "uint256",
          "name": "tokenId",
          "type": "uint256"
        },
        {
          "internalType": "bytes",
          "name": "data",
          "type": "bytes"
        }
      ],
      "name": "safeTransferFrom",
      "outputs": [],
      "stateMutability": "nonpayable",
      "type": "function"
    },
    {
      "inputs": [
        {
          "internalType": "address",
          "name": "operator",
          "type": "address"
        },
        {
          "internalType": "bool",
          "name": "approved",
          "type": "bool"
        }
      ],
      "name": "setApprovalForAll",
      "outputs": [],
      "stateMutability": "nonpayable",
      "type": "function"
    },
    {
      "inputs": [
        {
          "internalType": "bytes4",
          "name": "interfaceId",
          "type": "bytes4"
        }
      ],
      "name": "supportsInterface",
      "outputs": [
        {
          "internalType": "bool",
          "name": "",
          "type": "bool"
        }
      ],
      "stateMutability": "view",
      "type": "function"
    },
    {
      "inputs": [
        {
          "internalType": "string",
          "name": "svg",
          "type": "string"
        }
      ],
      "name": "svgToImageURI",
      "outputs": [
        {
          "internalType": "string",
          "name": "",
          "type": "string"
        }
      ],
      "stateMutability": "pure",
      "type": "function"
    },
    {
      "inputs": [],
      "name": "symbol",
      "outputs": [
        {
          "internalType": "string",
          "name": "",
          "type": "string"
        }
      ],
      "stateMutability": "view",
      "type": "function"
    },
    {
      "inputs": [
        {
          "internalType": "uint256",
          "name": "tokenId",
          "type": "uint256"
        }
      ],
      "name": "tokenURI",
      "outputs": [
        {
          "internalType": "string",
          "name": "",
          "type": "string"
        }
      ],
      "stateMutability": "view",
      "type": "function"
    },
    {
      "inputs": [
        {
          "internalType": "address",
          "name": "from",
          "type": "address"
        },
        {
          "internalType": "address",
          "name": "to",
          "type": "address"
        },
        {
          "internalType": "uint256",
          "name": "tokenId",
          "type": "uint256"
        }
      ],
      "name": "transferFrom",
      "outputs": [],
      "stateMutability": "nonpayable",
      "type": "function"
    }
  ],
  "bytecode": "0x60a06040523480156200001157600080fd5b506040516200376d3803806200376d83398181016040528101906200003791906200064f565b6040518060400160405280600f81526020017f44796e616d696320535647204e465400000000000000000000000000000000008152506040518060400160405280600381526020017f44534e00000000000000000000000000000000000000000000000000000000008152508160009080519060200190620000bb9291906200039d565b508060019080519060200190620000d49291906200039d565b5050506000600681905550620000f0826200017160201b60201c565b60079080519060200190620001079291906200039d565b5062000119816200017160201b60201c565b60089080519060200190620001309291906200039d565b508273ffffffffffffffffffffffffffffffffffffffff1660808173ffffffffffffffffffffffffffffffffffffffff1660601b815250505050506200093a565b60606000620001ac836040516020016200018c919062000736565b6040516020818303038152906040526200020f60201b62000d691760201c565b90506040518060400160405280601a81526020017f646174613a696d6167652f7376672b786d6c3b6261736536342c00000000000081525081604051602001620001f89291906200074f565b604051602081830303815290604052915050919050565b6060600082511415620002345760405180602001604052806000815250905062000398565b60006040518060600160405280604081526020016200372d6040913990506000600360028551620002669190620007b0565b6200027291906200083c565b600462000280919062000874565b90506000602082620002939190620007b0565b67ffffffffffffffff811115620002af57620002ae620004e1565b5b6040519080825280601f01601f191660200182016040528015620002e25781602001600182028036833780820191505090505b509050818152600183018586518101602084015b8183101562000353576003830192508251603f8160121c168501518253600182019150603f81600c1c168501518253600182019150603f8160061c168501518253600182019150603f8116850151825360018201915050620002f6565b60038951066001811462000370576002811462000381576200038c565b613d3d60f01b60028303526200038c565b603d60f81b60018303525b50505050508093505050505b919050565b828054620003ab9062000904565b90600052602060002090601f016020900481019282620003cf57600085556200041b565b82601f10620003ea57805160ff19168380011785556200041b565b828001600101855582156200041b579182015b828111156200041a578251825591602001919060010190620003fd565b5b5090506200042a91906200042e565b5090565b5b80821115620004495760008160009055506001016200042f565b5090565b6000604051905090565b600080fd5b600080fd5b600073ffffffffffffffffffffffffffffffffffffffff82169050919050565b60006200048e8262000461565b9050919050565b620004a08162000481565b8114620004ac57600080fd5b50565b600081519050620004c08162000495565b92915050565b600080fd5b600080fd5b6000601f19601f8301169050919050565b7f4e487b7100000000000000000000000000000000000000000000000000000000600052604160045260246000fd5b6200051b82620004d0565b810181811067ffffffffffffffff821117156200053d576200053c620004e1565b5b80604052505050565b6000620005526200044d565b905062000560828262000510565b919050565b600067ffffffffffffffff821115620005835762000582620004e1565b5b6200058e82620004d0565b9050602081019050919050565b60005b83811015620005bb5780820151818401526020810190506200059e565b83811115620005cb576000848401525b50505050565b6000620005e8620005e28462000565565b62000546565b905082815260208101848484011115620006075762000606620004cb565b5b620006148482856200059b565b509392505050565b600082601f830112620006345762000633620004c6565b5b815162000646848260208601620005d1565b91505092915050565b6000806000606084860312156200066b576200066a62000457565b5b60006200067b86828701620004af565b935050602084015167ffffffffffffffff8111156200069f576200069e6200045c565b5b620006ad868287016200061c565b925050604084015167ffffffffffffffff811115620006d157620006d06200045c565b5b620006df868287016200061c565b9150509250925092565b600081519050919050565b600081905092915050565b60006200070c82620006e9565b620007188185620006f4565b93506200072a8185602086016200059b565b80840191505092915050565b6000620007448284620006ff565b915081905092915050565b60006200075d8285620006ff565b91506200076b8284620006ff565b91508190509392505050565b6000819050919050565b7f4e487b7100000000000000000000000000000000000000000000000000000000600052601160045260246000fd5b6000620007bd8262000777565b9150620007ca8362000777565b9250827fffffffffffffffffffffffffffffffffffffffffffffffffffffffffffffffff0382111562000802576200080162000781565b5b828201905092915050565b7f4e487b7100000000000000000000000000000000000000000000000000000000600052601260045260246000fd5b6000620008498262000777565b9150620008568362000777565b9250826200086957620008686200080d565b5b828204905092915050565b6000620008818262000777565b91506200088e8362000777565b9250817fffffffffffffffffffffffffffffffffffffffffffffffffffffffffffffffff0483118215151615620008ca57620008c962000781565b5b828202905092915050565b7f4e487b7100000000000000000000000000000000000000000000000000000000600052602260045260246000fd5b600060028204905060018216806200091d57607f821691505b60208210811415620009345762000933620008d5565b5b50919050565b60805160601c612dd4620009596000396000610a820152612dd46000f3fe608060405234801561001057600080fd5b50600436106101005760003560e01c80636352211e11610097578063b88d4fde11610066578063b88d4fde146102bd578063c87b56dd146102d9578063e425aded14610309578063e985e9c51461033957610100565b80636352211e1461022357806370a082311461025357806395d89b4114610283578063a22cb465146102a157610100565b80631e930812116100d35780631e9308121461019f57806323b872dd146101bb57806330d871c6146101d757806342842e0e1461020757610100565b806301ffc9a71461010557806306fdde0314610135578063081812fc14610153578063095ea7b314610183575b600080fd5b61011f600480360381019061011a9190611a49565b610369565b60405161012c9190611a91565b60405180910390f35b61013d61044b565b60405161014a9190611b45565b60405180910390f35b61016d60048036038101906101689190611b9d565b6104dd565b60405161017a9190611c0b565b60405180910390f35b61019d60048036038101906101989190611c52565b610523565b005b6101b960048036038101906101b49190611cc8565b61063b565b005b6101d560048036038101906101d09190611cf5565b6106b3565b005b6101f160048036038101906101ec9190611e7d565b610713565b6040516101fe9190611b45565b60405180910390f35b610221600480360381019061021c9190611cf5565b6107a0565b005b61023d60048036038101906102389190611b9d565b6107c0565b60405161024a9190611c0b565b60405180910390f35b61026d60048036038101906102689190611ec6565b610872565b60405161027a9190611f02565b60405180910390f35b61028b61092a565b6040516102989190611b45565b60405180910390f35b6102bb60048036038101906102b69190611f49565b6109bc565b005b6102d760048036038101906102d2919061202a565b6109d2565b005b6102f360048036038101906102ee9190611b9d565b610a34565b6040516103009190611b45565b60405180910390f35b610323600480360381019061031e9190611b9d565b610cbd565b60405161033091906120bc565b60405180910390f35b610353600480360381019061034e91906120d7565b610cd5565b6040516103609190611a91565b60405180910390f35b60007f80ac58cd000000000000000000000000000000000000000000000000000000007bffffffffffffffffffffffffffffffffffffffffffffffffffffffff1916827bffffffffffffffffffffffffffffffffffffffffffffffffffffffff1916148061043457507f5b5e139f000000000000000000000000000000000000000000000000000000007bffffffffffffffffffffffffffffffffffffffffffffffffffffffff1916827bffffffffffffffffffffffffffffffffffffffffffffffffffffffff1916145b80610444575061044382610ee2565b5b9050919050565b60606000805461045a90612146565b80601f016020809104026020016040519081016040528092919081815260200182805461048690612146565b80156104d35780601f106104a8576101008083540402835291602001916104d3565b820191906000526020600020905b8154815290600101906020018083116104b657829003601f168201915b5050505050905090565b60006104e882610f4c565b6004600083815260200190815260200160002060009054906101000a900473ffffffffffffffffffffffffffffffffffffffff169050919050565b600061052e826107c0565b90508073ffffffffffffffffffffffffffffffffffffffff168373ffffffffffffffffffffffffffffffffffffffff16141561059f576040517f08c379a0000000000000000000000000000000000000000000000000000000008152600401610596906121ea565b60405180910390fd5b8073ffffffffffffffffffffffffffffffffffffffff166105be610f97565b73ffffffffffffffffffffffffffffffffffffffff1614806105ed57506105ec816105e7610f97565b610cd5565b5b61062c576040517f08c379a00000000000000000000000000000000000000000000000000000000081526004016106239061227c565b60405180910390fd5b6106368383610f9f565b505050565b806009600060065481526020019081526020016000208190555061066133600654611058565b600160065461067091906122cb565b6006819055506006547f882d3b5a729a8bb95cf6c0083c99b42ecd9637123d4425bd7b768877fd8af8b0826040516106a891906120bc565b60405180910390a250565b6106c46106be610f97565b82611076565b610703576040517f08c379a00000000000000000000000000000000000000000000000000000000081526004016106fa90612393565b60405180910390fd5b61070e83838361110b565b505050565b6060600061073f8360405160200161072b91906123ef565b604051602081830303815290604052610d69565b90506040518060400160405280601a81526020017f646174613a696d6167652f7376672b786d6c3b6261736536342c00000000000081525081604051602001610789929190612406565b604051602081830303815290604052915050919050565b6107bb838383604051806020016040528060008152506109d2565b505050565b6000806002600084815260200190815260200160002060009054906101000a900473ffffffffffffffffffffffffffffffffffffffff169050600073ffffffffffffffffffffffffffffffffffffffff168173ffffffffffffffffffffffffffffffffffffffff161415610869576040517f08c379a000000000000000000000000000000000000000000000000000000000815260040161086090612476565b60405180910390fd5b80915050919050565b60008073ffffffffffffffffffffffffffffffffffffffff168273ffffffffffffffffffffffffffffffffffffffff1614156108e3576040517f08c379a00000000000000000000000000000000000000000000000000000000081526004016108da90612508565b60405180910390fd5b600360008373ffffffffffffffffffffffffffffffffffffffff1673ffffffffffffffffffffffffffffffffffffffff168152602001908152602001600020549050919050565b60606001805461093990612146565b80601f016020809104026020016040519081016040528092919081815260200182805461096590612146565b80156109b25780601f10610987576101008083540402835291602001916109b2565b820191906000526020600020905b81548152906001019060200180831161099557829003601f168201915b5050505050905090565b6109ce6109c7610f97565b8383611372565b5050565b6109e36109dd610f97565b83611076565b610a22576040517f08c379a0000000000000000000000000000000000000000000000000000000008152600401610a1990612393565b60405180910390fd5b610a2e848484846114df565b50505050565b6060610a3f8261153b565b610a7e576040517f08c379a0000000000000000000000000000000000000000000000000000000008152600401610a7590612574565b60405180910390fd5b60007f000000000000000000000000000000000000000000000000000000000000000073ffffffffffffffffffffffffffffffffffffffff1663feaf968c6040518163ffffffff1660e01b815260040160a06040518083038186803b158015610ae657600080fd5b505afa158015610afa573d6000803e3d6000fd5b505050506040513d601f19601f82011682018060405250810190610b1e9190612600565b505050915050600060078054610b3390612146565b80601f0160208091040260200160405190810160405280929190818152602001828054610b5f90612146565b8015610bac5780601f10610b8157610100808354040283529160200191610bac565b820191906000526020600020905b815481529060010190602001808311610b8f57829003601f168201915b5050505050905060096000858152602001908152602001600020548212610c5b5760088054610bda90612146565b80601f0160208091040260200160405190810160405280929190818152602001828054610c0690612146565b8015610c535780601f10610c2857610100808354040283529160200191610c53565b820191906000526020600020905b815481529060010190602001808311610c3657829003601f168201915b505050505090505b610c636115a7565b610c94610c6e61044b565b83604051602001610c80929190612843565b604051602081830303815290604052610d69565b604051602001610ca5929190612406565b60405160208183030381529060405292505050919050565b60096020528060005260406000206000915090505481565b6000600560008473ffffffffffffffffffffffffffffffffffffffff1673ffffffffffffffffffffffffffffffffffffffff16815260200190815260200160002060008373ffffffffffffffffffffffffffffffffffffffff1673ffffffffffffffffffffffffffffffffffffffff16815260200190815260200160002060009054906101000a900460ff16905092915050565b6060600082511415610d8c57604051806020016040528060008152509050610edd565b6000604051806060016040528060408152602001612d5f6040913990506000600360028551610dbb91906122cb565b610dc591906128c2565b6004610dd191906128f3565b90506000602082610de291906122cb565b67ffffffffffffffff811115610dfb57610dfa611d52565b5b6040519080825280601f01601f191660200182016040528015610e2d5781602001600182028036833780820191505090505b509050818152600183018586518101602084015b81831015610e9c576003830192508251603f8160121c168501518253600182019150603f81600c1c168501518253600182019150603f8160061c168501518253600182019150603f8116850151825360018201915050610e41565b600389510660018114610eb65760028114610ec657610ed1565b613d3d60f01b6002830352610ed1565b603d60f81b60018303525b50505050508093505050505b919050565b60007f01ffc9a7000000000000000000000000000000000000000000000000000000007bffffffffffffffffffffffffffffffffffffffffffffffffffffffff1916827bffffffffffffffffffffffffffffffffffffffffffffffffffffffff1916149050919050565b610f558161153b565b610f94576040517f08c379a0000000000000000000000000000000000000000000000000000000008152600401610f8b90612476565b60405180910390fd5b50565b600033905090565b816004600083815260200190815260200160002060006101000a81548173ffffffffffffffffffffffffffffffffffffffff021916908373ffffffffffffffffffffffffffffffffffffffff160217905550808273ffffffffffffffffffffffffffffffffffffffff16611012836107c0565b73ffffffffffffffffffffffffffffffffffffffff167f8c5be1e5ebec7d5bd14f71427d1e84f3dd0314c0f7b2291e5b200ac8c7c3b92560405160405180910390a45050565b6110728282604051806020016040528060008152506115e4565b5050565b600080611082836107c0565b90508073ffffffffffffffffffffffffffffffffffffffff168473ffffffffffffffffffffffffffffffffffffffff1614806110c457506110c38185610cd5565b5b8061110257508373ffffffffffffffffffffffffffffffffffffffff166110ea846104dd565b73ffffffffffffffffffffffffffffffffffffffff16145b91505092915050565b8273ffffffffffffffffffffffffffffffffffffffff1661112b826107c0565b73ffffffffffffffffffffffffffffffffffffffff1614611181576040517f08c379a0000000000000000000000000000000000000000000000000000000008152600401611178906129bf565b60405180910390fd5b600073ffffffffffffffffffffffffffffffffffffffff168273ffffffffffffffffffffffffffffffffffffffff1614156111f1576040517f08c379a00000000000000000000000000000000000000000000000000000000081526004016111e890612a51565b60405180910390fd5b6111fc83838361163f565b611207600082610f9f565b6001600360008573ffffffffffffffffffffffffffffffffffffffff1673ffffffffffffffffffffffffffffffffffffffff16815260200190815260200160002060008282546112579190612a71565b925050819055506001600360008473ffffffffffffffffffffffffffffffffffffffff1673ffffffffffffffffffffffffffffffffffffffff16815260200190815260200160002060008282546112ae91906122cb565b92505081905550816002600083815260200190815260200160002060006101000a81548173ffffffffffffffffffffffffffffffffffffffff021916908373ffffffffffffffffffffffffffffffffffffffff160217905550808273ffffffffffffffffffffffffffffffffffffffff168473ffffffffffffffffffffffffffffffffffffffff167fddf252ad1be2c89b69c2b068fc378daa952ba7f163c4a11628f55a4df523b3ef60405160405180910390a461136d838383611644565b505050565b8173ffffffffffffffffffffffffffffffffffffffff168373ffffffffffffffffffffffffffffffffffffffff1614156113e1576040517f08c379a00000000000000000000000000000000000000000000000000000000081526004016113d890612af1565b60405180910390fd5b80600560008573ffffffffffffffffffffffffffffffffffffffff1673ffffffffffffffffffffffffffffffffffffffff16815260200190815260200160002060008473ffffffffffffffffffffffffffffffffffffffff1673ffffffffffffffffffffffffffffffffffffffff16815260200190815260200160002060006101000a81548160ff0219169083151502179055508173ffffffffffffffffffffffffffffffffffffffff168373ffffffffffffffffffffffffffffffffffffffff167f17307eab39ab6107e8899845ad3d59bd9653f200f220920489ca2b5937696c31836040516114d29190611a91565b60405180910390a3505050565b6114ea84848461110b565b6114f684848484611649565b611535576040517f08c379a000000000000000000000000000000000000000000000000000000000815260040161152c90612b83565b60405180910390fd5b50505050565b60008073ffffffffffffffffffffffffffffffffffffffff166002600084815260200190815260200160002060009054906101000a900473ffffffffffffffffffffffffffffffffffffffff1673ffffffffffffffffffffffffffffffffffffffff1614159050919050565b60606040518060400160405280601d81526020017f646174613a6170706c69636174696f6e2f6a736f6e3b6261736536342c000000815250905090565b6115ee83836117e0565b6115fb6000848484611649565b61163a576040517f08c379a000000000000000000000000000000000000000000000000000000000815260040161163190612b83565b60405180910390fd5b505050565b505050565b505050565b600061166a8473ffffffffffffffffffffffffffffffffffffffff166119ba565b156117d3578373ffffffffffffffffffffffffffffffffffffffff1663150b7a02611693610f97565b8786866040518563ffffffff1660e01b81526004016116b59493929190612bf8565b602060405180830381600087803b1580156116cf57600080fd5b505af192505050801561170057506040513d601f19601f820116820180604052508101906116fd9190612c59565b60015b611783573d8060008114611730576040519150601f19603f3d011682016040523d82523d6000602084013e611735565b606091505b5060008151141561177b576040517f08c379a000000000000000000000000000000000000000000000000000000000815260040161177290612b83565b60405180910390fd5b805181602001fd5b63150b7a0260e01b7bffffffffffffffffffffffffffffffffffffffffffffffffffffffff1916817bffffffffffffffffffffffffffffffffffffffffffffffffffffffff1916149150506117d8565b600190505b949350505050565b600073ffffffffffffffffffffffffffffffffffffffff168273ffffffffffffffffffffffffffffffffffffffff161415611850576040517f08c379a000000000000000000000000000000000000000000000000000000000815260040161184790612cd2565b60405180910390fd5b6118598161153b565b15611899576040517f08c379a000000000000000000000000000000000000000000000000000000000815260040161189090612d3e565b60405180910390fd5b6118a56000838361163f565b6001600360008473ffffffffffffffffffffffffffffffffffffffff1673ffffffffffffffffffffffffffffffffffffffff16815260200190815260200160002060008282546118f591906122cb565b92505081905550816002600083815260200190815260200160002060006101000a81548173ffffffffffffffffffffffffffffffffffffffff021916908373ffffffffffffffffffffffffffffffffffffffff160217905550808273ffffffffffffffffffffffffffffffffffffffff16600073ffffffffffffffffffffffffffffffffffffffff167fddf252ad1be2c89b69c2b068fc378daa952ba7f163c4a11628f55a4df523b3ef60405160405180910390a46119b660008383611644565b5050565b6000808273ffffffffffffffffffffffffffffffffffffffff163b119050919050565b6000604051905090565b600080fd5b600080fd5b60007fffffffff0000000000000000000000000000000000000000000000000000000082169050919050565b611a26816119f1565b8114611a3157600080fd5b50565b600081359050611a4381611a1d565b92915050565b600060208284031215611a5f57611a5e6119e7565b5b6000611a6d84828501611a34565b91505092915050565b60008115159050919050565b611a8b81611a76565b82525050565b6000602082019050611aa66000830184611a82565b92915050565b600081519050919050565b600082825260208201905092915050565b60005b83811015611ae6578082015181840152602081019050611acb565b83811115611af5576000848401525b50505050565b6000601f19601f8301169050919050565b6000611b1782611aac565b611b218185611ab7565b9350611b31818560208601611ac8565b611b3a81611afb565b840191505092915050565b60006020820190508181036000830152611b5f8184611b0c565b905092915050565b6000819050919050565b611b7a81611b67565b8114611b8557600080fd5b50565b600081359050611b9781611b71565b92915050565b600060208284031215611bb357611bb26119e7565b5b6000611bc184828501611b88565b91505092915050565b600073ffffffffffffffffffffffffffffffffffffffff82169050919050565b6000611bf582611bca565b9050919050565b611c0581611bea565b82525050565b6000602082019050611c206000830184611bfc565b92915050565b611c2f81611bea565b8114611c3a57600080fd5b50565b600081359050611c4c81611c26565b92915050565b60008060408385031215611c6957611c686119e7565b5b6000611c7785828601611c3d565b9250506020611c8885828601611b88565b9150509250929050565b6000819050919050565b611ca581611c92565b8114611cb057600080fd5b50565b600081359050611cc281611c9c565b92915050565b600060208284031215611cde57611cdd6119e7565b5b6000611cec84828501611cb3565b91505092915050565b600080600060608486031215611d0e57611d0d6119e7565b5b6000611d1c86828701611c3d565b9350506020611d2d86828701611c3d565b9250506040611d3e86828701611b88565b9150509250925092565b600080fd5b600080fd5b7f4e487b7100000000000000000000000000000000000000000000000000000000600052604160045260246000fd5b611d8a82611afb565b810181811067ffffffffffffffff82111715611da957611da8611d52565b5b80604052505050565b6000611dbc6119dd565b9050611dc88282611d81565b919050565b600067ffffffffffffffff821115611de857611de7611d52565b5b611df182611afb565b9050602081019050919050565b82818337600083830152505050565b6000611e20611e1b84611dcd565b611db2565b905082815260208101848484011115611e3c57611e3b611d4d565b5b611e47848285611dfe565b509392505050565b600082601f830112611e6457611e63611d48565b5b8135611e74848260208601611e0d565b91505092915050565b600060208284031215611e9357611e926119e7565b5b600082013567ffffffffffffffff811115611eb157611eb06119ec565b5b611ebd84828501611e4f565b91505092915050565b600060208284031215611edc57611edb6119e7565b5b6000611eea84828501611c3d565b91505092915050565b611efc81611b67565b82525050565b6000602082019050611f176000830184611ef3565b92915050565b611f2681611a76565b8114611f3157600080fd5b50565b600081359050611f4381611f1d565b92915050565b60008060408385031215611f6057611f5f6119e7565b5b6000611f6e85828601611c3d565b9250506020611f7f85828601611f34565b9150509250929050565b600067ffffffffffffffff821115611fa457611fa3611d52565b5b611fad82611afb565b9050602081019050919050565b6000611fcd611fc884611f89565b611db2565b905082815260208101848484011115611fe957611fe8611d4d565b5b611ff4848285611dfe565b509392505050565b600082601f83011261201157612010611d48565b5b8135612021848260208601611fba565b91505092915050565b60008060008060808587031215612044576120436119e7565b5b600061205287828801611c3d565b945050602061206387828801611c3d565b935050604061207487828801611b88565b925050606085013567ffffffffffffffff811115612095576120946119ec565b5b6120a187828801611ffc565b91505092959194509250565b6120b681611c92565b82525050565b60006020820190506120d160008301846120ad565b92915050565b600080604083850312156120ee576120ed6119e7565b5b60006120fc85828601611c3d565b925050602061210d85828601611c3d565b9150509250929050565b7f4e487b7100000000000000000000000000000000000000000000000000000000600052602260045260246000fd5b6000600282049050600182168061215e57607f821691505b6020821081141561217257612171612117565b5b50919050565b7f4552433732313a20617070726f76616c20746f2063757272656e74206f776e6560008201527f7200000000000000000000000000000000000000000000000000000000000000602082015250565b60006121d4602183611ab7565b91506121df82612178565b604082019050919050565b60006020820190508181036000830152612203816121c7565b9050919050565b7f4552433732313a20617070726f76652063616c6c6572206973206e6f7420746f60008201527f6b656e206f776e6572206e6f7220617070726f76656420666f7220616c6c0000602082015250565b6000612266603e83611ab7565b91506122718261220a565b604082019050919050565b6000602082019050818103600083015261229581612259565b9050919050565b7f4e487b7100000000000000000000000000000000000000000000000000000000600052601160045260246000fd5b60006122d682611b67565b91506122e183611b67565b9250827fffffffffffffffffffffffffffffffffffffffffffffffffffffffffffffffff038211156123165761231561229c565b5b828201905092915050565b7f4552433732313a2063616c6c6572206973206e6f7420746f6b656e206f776e6560008201527f72206e6f7220617070726f766564000000000000000000000000000000000000602082015250565b600061237d602e83611ab7565b915061238882612321565b604082019050919050565b600060208201905081810360008301526123ac81612370565b9050919050565b600081905092915050565b60006123c982611aac565b6123d381856123b3565b93506123e3818560208601611ac8565b80840191505092915050565b60006123fb82846123be565b915081905092915050565b600061241282856123be565b915061241e82846123be565b91508190509392505050565b7f4552433732313a20696e76616c696420746f6b656e2049440000000000000000600082015250565b6000612460601883611ab7565b915061246b8261242a565b602082019050919050565b6000602082019050818103600083015261248f81612453565b9050919050565b7f4552433732313a2061646472657373207a65726f206973206e6f74206120766160008201527f6c6964206f776e65720000000000000000000000000000000000000000000000602082015250565b60006124f2602983611ab7565b91506124fd82612496565b604082019050919050565b60006020820190508181036000830152612521816124e5565b9050919050565b7f55524920517565727920666f72206e6f6e6578697374656e7420746f6b656e00600082015250565b600061255e601f83611ab7565b915061256982612528565b602082019050919050565b6000602082019050818103600083015261258d81612551565b9050919050565b600069ffffffffffffffffffff82169050919050565b6125b381612594565b81146125be57600080fd5b50565b6000815190506125d0816125aa565b92915050565b6000815190506125e581611c9c565b92915050565b6000815190506125fa81611b71565b92915050565b600080600080600060a0868803121561261c5761261b6119e7565b5b600061262a888289016125c1565b955050602061263b888289016125d6565b945050604061264c888289016125eb565b935050606061265d888289016125eb565b925050608061266e888289016125c1565b9150509295509295909350565b7f7b226e616d653a22000000000000000000000000000000000000000000000000600082015250565b60006126b16008836123b3565b91506126bc8261267b565b600882019050919050565b7f222c20226465736372697074696f6e223a22416e204e4654207468617420636860008201527f616e676573206261736564206f6e202074686520436861696e6c696e6b20466560208201527f6564222c20000000000000000000000000000000000000000000000000000000604082015250565b60006127496045836123b3565b9150612754826126c7565b604582019050919050565b7f2261747472696275746573223a205b7b2274726169745f74797065223a20226360008201527f6f6f6c6e657373222c202276616c7565223a203130307d5d2c2022696d61676560208201527f223a202200000000000000000000000000000000000000000000000000000000604082015250565b60006127e16044836123b3565b91506127ec8261275f565b604482019050919050565b7f227d000000000000000000000000000000000000000000000000000000000000600082015250565b600061282d6002836123b3565b9150612838826127f7565b600282019050919050565b600061284e826126a4565b915061285a82856123be565b91506128658261273c565b9150612870826127d4565b915061287c82846123be565b915061288782612820565b91508190509392505050565b7f4e487b7100000000000000000000000000000000000000000000000000000000600052601260045260246000fd5b60006128cd82611b67565b91506128d883611b67565b9250826128e8576128e7612893565b5b828204905092915050565b60006128fe82611b67565b915061290983611b67565b9250817fffffffffffffffffffffffffffffffffffffffffffffffffffffffffffffffff04831182151516156129425761294161229c565b5b828202905092915050565b7f4552433732313a207472616e736665722066726f6d20696e636f72726563742060008201527f6f776e6572000000000000000000000000000000000000000000000000000000602082015250565b60006129a9602583611ab7565b91506129b48261294d565b604082019050919050565b600060208201905081810360008301526129d88161299c565b9050919050565b7f4552433732313a207472616e7366657220746f20746865207a65726f2061646460008201527f7265737300000000000000000000000000000000000000000000000000000000602082015250565b6000612a3b602483611ab7565b9150612a46826129df565b604082019050919050565b60006020820190508181036000830152612a6a81612a2e565b9050919050565b6000612a7c82611b67565b9150612a8783611b67565b925082821015612a9a57612a9961229c565b5b828203905092915050565b7f4552433732313a20617070726f766520746f2063616c6c657200000000000000600082015250565b6000612adb601983611ab7565b9150612ae682612aa5565b602082019050919050565b60006020820190508181036000830152612b0a81612ace565b9050919050565b7f4552433732313a207472616e7366657220746f206e6f6e20455243373231526560008201527f63656976657220696d706c656d656e7465720000000000000000000000000000602082015250565b6000612b6d603283611ab7565b9150612b7882612b11565b604082019050919050565b60006020820190508181036000830152612b9c81612b60565b9050919050565b600081519050919050565b600082825260208201905092915050565b6000612bca82612ba3565b612bd48185612bae565b9350612be4818560208601611ac8565b612bed81611afb565b840191505092915050565b6000608082019050612c0d6000830187611bfc565b612c1a6020830186611bfc565b612c276040830185611ef3565b8181036060830152612c398184612bbf565b905095945050505050565b600081519050612c5381611a1d565b92915050565b600060208284031215612c6f57612c6e6119e7565b5b6000612c7d84828501612c44565b91505092915050565b7f4552433732313a206d696e7420746f20746865207a65726f2061646472657373600082015250565b6000612cbc602083611ab7565b9150612cc782612c86565b602082019050919050565b60006020820190508181036000830152612ceb81612caf565b9050919050565b7f4552433732313a20746f6b656e20616c7265616479206d696e74656400000000600082015250565b6000612d28601c83611ab7565b9150612d3382612cf2565b602082019050919050565b60006020820190508181036000830152612d5781612d1b565b905091905056fe4142434445464748494a4b4c4d4e4f505152535455565758595a6162636465666768696a6b6c6d6e6f707172737475767778797a303132333435363738392b2fa26469706673582212200c1628653c310b89da963a38cc7943b4f1cc9f241018c42f3d994a2f6a5888cd64736f6c634300080800334142434445464748494a4b4c4d4e4f505152535455565758595a6162636465666768696a6b6c6d6e6f707172737475767778797a303132333435363738392b2f",
  "linkReferences": {},
  "deployedLinkReferences": {}
}