{
  "_format": "hh-sol-artifact-1",
  "contractName": "RandomIpfsNft",
  "sourceName": "contracts/RandomIpfsNft.sol",
  "abi": [
    {
      "inputs": [
        {
          "internalType": "address",
          "name": "vrfCoordinatorV2",
          "type": "address"
        },
        {
          "internalType": "uint64",
          "name": "subscriptionId",
          "type": "uint64"
        },
        {
          "internalType": "bytes32",
          "name": "gasLane",
          "type": "bytes32"
        },
        {
          "internalType": "uint256",
          "name": "mintFee",
          "type": "uint256"
        },
        {
          "internalType": "uint32",
          "name": "callbackGasLimit",
          "type": "uint32"
        },
        {
          "internalType": "string[3]",
          "name": "dogTokenUris",
          "type": "string[3]"
        }
      ],
      "stateMutability": "nonpayable",
      "type": "constructor"
    },
    {
      "inputs": [
        {
          "internalType": "address",
          "name": "have",
          "type": "address"
        },
        {
          "internalType": "address",
          "name": "want",
          "type": "address"
        }
      ],
      "name": "OnlyCoordinatorCanFulfill",
      "type": "error"
    },
    {
      "inputs": [],
      "name": "RandomIPfs__NeedMoreETHSent",
      "type": "error"
    },
    {
      "inputs": [],
      "name": "RandomIPfs__TransferFailed",
      "type": "error"
    },
    {
      "inputs": [],
      "name": "RandomIpfsNft__AlreadyInitialized",
      "type": "error"
    },
    {
      "inputs": [],
      "name": "RandomIpfs__RangeOutOfBounds",
      "type": "error"
    },
    {
      "anonymous": false,
      "inputs": [
        {
          "indexed": true,
          "internalType": "address",
          "name": "owner",
          "type": "address"
        },
        {
          "indexed": true,
          "internalType": "address",
          "name": "approved",
          "type": "address"
        },
        {
          "indexed": true,
          "internalType": "uint256",
          "name": "tokenId",
          "type": "uint256"
        }
      ],
      "name": "Approval",
      "type": "event"
    },
    {
      "anonymous": false,
      "inputs": [
        {
          "indexed": true,
          "internalType": "address",
          "name": "owner",
          "type": "address"
        },
        {
          "indexed": true,
          "internalType": "address",
          "name": "operator",
          "type": "address"
        },
        {
          "indexed": false,
          "internalType": "bool",
          "name": "approved",
          "type": "bool"
        }
      ],
      "name": "ApprovalForAll",
      "type": "event"
    },
    {
      "anonymous": false,
      "inputs": [
        {
          "indexed": false,
          "internalType": "enum RandomIpfsNft.Breed",
          "name": "dogBreed",
          "type": "uint8"
        },
        {
          "indexed": false,
          "internalType": "address",
          "name": "minter",
          "type": "address"
        }
      ],
      "name": "NftMinted",
      "type": "event"
    },
    {
      "anonymous": false,
      "inputs": [
        {
          "indexed": true,
          "internalType": "uint256",
          "name": "requestId",
          "type": "uint256"
        },
        {
          "indexed": false,
          "internalType": "address",
          "name": "requester",
          "type": "address"
        }
      ],
      "name": "NftRequested",
      "type": "event"
    },
    {
      "anonymous": false,
      "inputs": [
        {
          "indexed": true,
          "internalType": "address",
          "name": "previousOwner",
          "type": "address"
        },
        {
          "indexed": true,
          "internalType": "address",
          "name": "newOwner",
          "type": "address"
        }
      ],
      "name": "OwnershipTransferred",
      "type": "event"
    },
    {
      "anonymous": false,
      "inputs": [
        {
          "indexed": true,
          "internalType": "address",
          "name": "from",
          "type": "address"
        },
        {
          "indexed": true,
          "internalType": "address",
          "name": "to",
          "type": "address"
        },
        {
          "indexed": true,
          "internalType": "uint256",
          "name": "tokenId",
          "type": "uint256"
        }
      ],
      "name": "Transfer",
      "type": "event"
    },
    {
      "inputs": [
        {
          "internalType": "address",
          "name": "to",
          "type": "address"
        },
        {
          "internalType": "uint256",
          "name": "tokenId",
          "type": "uint256"
        }
      ],
      "name": "approve",
      "outputs": [],
      "stateMutability": "nonpayable",
      "type": "function"
    },
    {
      "inputs": [
        {
          "internalType": "address",
          "name": "owner",
          "type": "address"
        }
      ],
      "name": "balanceOf",
      "outputs": [
        {
          "internalType": "uint256",
          "name": "",
          "type": "uint256"
        }
      ],
      "stateMutability": "view",
      "type": "function"
    },
    {
      "inputs": [
        {
          "internalType": "uint256",
          "name": "tokenId",
          "type": "uint256"
        }
      ],
      "name": "getApproved",
      "outputs": [
        {
          "internalType": "address",
          "name": "",
          "type": "address"
        }
      ],
      "stateMutability": "view",
      "type": "function"
    },
    {
      "inputs": [
        {
          "internalType": "uint256",
          "name": "moddedRng",
          "type": "uint256"
        }
      ],
      "name": "getBreedFromModdedRng",
      "outputs": [
        {
          "internalType": "enum RandomIpfsNft.Breed",
          "name": "",
          "type": "uint8"
        }
      ],
      "stateMutability": "pure",
      "type": "function"
    },
    {
      "inputs": [],
      "name": "getChanceArray",
      "outputs": [
        {
          "internalType": "uint256[3]",
          "name": "",
          "type": "uint256[3]"
        }
      ],
      "stateMutability": "pure",
      "type": "function"
    },
    {
      "inputs": [
        {
          "internalType": "uint256",
          "name": "index",
          "type": "uint256"
        }
      ],
      "name": "getDogTokenUris",
      "outputs": [
        {
          "internalType": "string",
          "name": "",
          "type": "string"
        }
      ],
      "stateMutability": "view",
      "type": "function"
    },
    {
      "inputs": [],
      "name": "getInitialized",
      "outputs": [
        {
          "internalType": "bool",
          "name": "",
          "type": "bool"
        }
      ],
      "stateMutability": "view",
      "type": "function"
    },
    {
      "inputs": [],
      "name": "getMintFee",
      "outputs": [
        {
          "internalType": "uint256",
          "name": "",
          "type": "uint256"
        }
      ],
      "stateMutability": "view",
      "type": "function"
    },
    {
      "inputs": [],
      "name": "getTokenCounter",
      "outputs": [
        {
          "internalType": "uint256",
          "name": "",
          "type": "uint256"
        }
      ],
      "stateMutability": "view",
      "type": "function"
    },
    {
      "inputs": [
        {
          "internalType": "address",
          "name": "owner",
          "type": "address"
        },
        {
          "internalType": "address",
          "name": "operator",
          "type": "address"
        }
      ],
      "name": "isApprovedForAll",
      "outputs": [
        {
          "internalType": "bool",
          "name": "",
          "type": "bool"
        }
      ],
      "stateMutability": "view",
      "type": "function"
    },
    {
      "inputs": [],
      "name": "name",
      "outputs": [
        {
          "internalType": "string",
          "name": "",
          "type": "string"
        }
      ],
      "stateMutability": "view",
      "type": "function"
    },
    {
      "inputs": [],
      "name": "owner",
      "outputs": [
        {
          "internalType": "address",
          "name": "",
          "type": "address"
        }
      ],
      "stateMutability": "view",
      "type": "function"
    },
    {
      "inputs": [
        {
          "internalType": "uint256",
          "name": "tokenId",
          "type": "uint256"
        }
      ],
      "name": "ownerOf",
      "outputs": [
        {
          "internalType": "address",
          "name": "",
          "type": "address"
        }
      ],
      "stateMutability": "view",
      "type": "function"
    },
    {
      "inputs": [
        {
          "internalType": "uint256",
          "name": "requestId",
          "type": "uint256"
        },
        {
          "internalType": "uint256[]",
          "name": "randomWords",
          "type": "uint256[]"
        }
      ],
      "name": "rawFulfillRandomWords",
      "outputs": [],
      "stateMutability": "nonpayable",
      "type": "function"
    },
    {
      "inputs": [],
      "name": "renounceOwnership",
      "outputs": [],
      "stateMutability": "nonpayable",
      "type": "function"
    },
    {
      "inputs": [],
      "name": "requestNft",
      "outputs": [
        {
          "internalType": "uint256",
          "name": "requestId",
          "type": "uint256"
        }
      ],
      "stateMutability": "payable",
      "type": "function"
    },
    {
      "inputs": [
        {
          "internalType": "uint256",
          "name": "",
          "type": "uint256"
        }
      ],
      "name": "s_requestIdToSender",
      "outputs": [
        {
          "internalType": "address",
          "name": "",
          "type": "address"
        }
      ],
      "stateMutability": "view",
      "type": "function"
    },
    {
      "inputs": [],
      "name": "s_tokenCounter",
      "outputs": [
        {
          "internalType": "uint256",
          "name": "",
          "type": "uint256"
        }
      ],
      "stateMutability": "view",
      "type": "function"
    },
    {
      "inputs": [
        {
          "internalType": "address",
          "name": "from",
          "type": "address"
        },
        {
          "internalType": "address",
          "name": "to",
          "type": "address"
        },
        {
          "internalType": "uint256",
          "name": "tokenId",
          "type": "uint256"
        }
      ],
      "name": "safeTransferFrom",
      "outputs": [],
      "stateMutability": "nonpayable",
      "type": "function"
    },
    {
      "inputs": [
        {
          "internalType": "address",
          "name": "from",
          "type": "address"
        },
        {
          "internalType": "address",
          "name": "to",
          "type": "address"
        },
        {
          "internalType": "uint256",
          "name": "tokenId",
          "type": "uint256"
        },
        {
          "internalType": "bytes",
          "name": "data",
          "type": "bytes"
        }
      ],
      "name": "safeTransferFrom",
      "outputs": [],
      "stateMutability": "nonpayable",
      "type": "function"
    },
    {
      "inputs": [
        {
          "internalType": "address",
          "name": "operator",
          "type": "address"
        },
        {
          "internalType": "bool",
          "name": "approved",
          "type": "bool"
        }
      ],
      "name": "setApprovalForAll",
      "outputs": [],
      "stateMutability": "nonpayable",
      "type": "function"
    },
    {
      "inputs": [
        {
          "internalType": "bytes4",
          "name": "interfaceId",
          "type": "bytes4"
        }
      ],
      "name": "supportsInterface",
      "outputs": [
        {
          "internalType": "bool",
          "name": "",
          "type": "bool"
        }
      ],
      "stateMutability": "view",
      "type": "function"
    },
    {
      "inputs": [],
      "name": "symbol",
      "outputs": [
        {
          "internalType": "string",
          "name": "",
          "type": "string"
        }
      ],
      "stateMutability": "view",
      "type": "function"
    },
    {
      "inputs": [
        {
          "internalType": "uint256",
          "name": "tokenId",
          "type": "uint256"
        }
      ],
      "name": "tokenURI",
      "outputs": [
        {
          "internalType": "string",
          "name": "",
          "type": "string"
        }
      ],
      "stateMutability": "view",
      "type": "function"
    },
    {
      "inputs": [
        {
          "internalType": "address",
          "name": "from",
          "type": "address"
        },
        {
          "internalType": "address",
          "name": "to",
          "type": "address"
        },
        {
          "internalType": "uint256",
          "name": "tokenId",
          "type": "uint256"
        }
      ],
      "name": "transferFrom",
      "outputs": [],
      "stateMutability": "nonpayable",
      "type": "function"
    },
    {
      "inputs": [
        {
          "internalType": "address",
          "name": "newOwner",
          "type": "address"
        }
      ],
      "name": "transferOwnership",
      "outputs": [],
      "stateMutability": "nonpayable",
      "type": "function"
    },
    {
      "inputs": [],
      "name": "withdraw",
      "outputs": [],
      "stateMutability": "nonpayable",
      "type": "function"
    }
  ],
  "bytecode": "0x6101406040523480156200001257600080fd5b50604051620043e5380380620043e5833981810160405281019062000038919062000882565b856040518060400160405280600f81526020017f52616e646f6d2049504653204e465400000000000000000000000000000000008152506040518060400160405280600381526020017f52494e00000000000000000000000000000000000000000000000000000000008152508160009080519060200190620000bd92919062000315565b508060019080519060200190620000d692919062000315565b5050508073ffffffffffffffffffffffffffffffffffffffff1660808173ffffffffffffffffffffffffffffffffffffffff1660601b81525050506200013162000125620001cd60201b60201c565b620001d560201b60201c565b8573ffffffffffffffffffffffffffffffffffffffff1660a08173ffffffffffffffffffffffffffffffffffffffff1660601b815250508467ffffffffffffffff1660c08167ffffffffffffffff1660c01b815250508360e081815250508163ffffffff166101008163ffffffff1660e01b81525050826101208181525050620001c1816200029b60201b60201c565b505050505050620009a2565b600033905090565b6000600760009054906101000a900473ffffffffffffffffffffffffffffffffffffffff16905081600760006101000a81548173ffffffffffffffffffffffffffffffffffffffff021916908373ffffffffffffffffffffffffffffffffffffffff1602179055508173ffffffffffffffffffffffffffffffffffffffff168173ffffffffffffffffffffffffffffffffffffffff167f8be0079c531659141344cd1fd0a4f28419497f9722a3daafe3b4186f6b6457e060405160405180910390a35050565b600a60009054906101000a900460ff1615620002e3576040517fddf8bf7000000000000000000000000000000000000000000000000000000000815260040160405180910390fd5b806009906003620002f6929190620003a6565b506001600a60006101000a81548160ff02191690831515021790555050565b82805462000323906200096c565b90600052602060002090601f01602090048101928262000347576000855562000393565b82601f106200036257805160ff191683800117855562000393565b8280016001018555821562000393579182015b828111156200039257825182559160200191906001019062000375565b5b509050620003a291906200040d565b5090565b828054828255906000526020600020908101928215620003fa579160200282015b82811115620003f9578251829080519060200190620003e892919062000315565b5091602001919060010190620003c7565b5b5090506200040991906200042c565b5090565b5b80821115620004285760008160009055506001016200040e565b5090565b5b8082111562000450576000818162000446919062000454565b506001016200042d565b5090565b50805462000462906200096c565b6000825580601f1062000476575062000497565b601f0160209004906000526020600020908101906200049691906200040d565b5b50565b6000604051905090565b600080fd5b600080fd5b600073ffffffffffffffffffffffffffffffffffffffff82169050919050565b6000620004db82620004ae565b9050919050565b620004ed81620004ce565b8114620004f957600080fd5b50565b6000815190506200050d81620004e2565b92915050565b600067ffffffffffffffff82169050919050565b620005328162000513565b81146200053e57600080fd5b50565b600081519050620005528162000527565b92915050565b6000819050919050565b6200056d8162000558565b81146200057957600080fd5b50565b6000815190506200058d8162000562565b92915050565b6000819050919050565b620005a88162000593565b8114620005b457600080fd5b50565b600081519050620005c8816200059d565b92915050565b600063ffffffff82169050919050565b620005e981620005ce565b8114620005f557600080fd5b50565b6000815190506200060981620005de565b92915050565b600080fd5b6000601f19601f8301169050919050565b7f4e487b7100000000000000000000000000000000000000000000000000000000600052604160045260246000fd5b6200065f8262000614565b810181811067ffffffffffffffff8211171562000681576200068062000625565b5b80604052505050565b6000620006966200049a565b9050620006a4828262000654565b919050565b600067ffffffffffffffff821115620006c757620006c662000625565b5b602082029050919050565b600080fd5b600080fd5b600067ffffffffffffffff821115620006fa57620006f962000625565b5b620007058262000614565b9050602081019050919050565b60005b838110156200073257808201518184015260208101905062000715565b8381111562000742576000848401525b50505050565b60006200075f6200075984620006dc565b6200068a565b9050828152602081018484840111156200077e576200077d620006d7565b5b6200078b84828562000712565b509392505050565b600082601f830112620007ab57620007aa6200060f565b5b8151620007bd84826020860162000748565b91505092915050565b6000620007dd620007d784620006a9565b6200068a565b90508060208402830185811115620007fa57620007f9620006d2565b5b835b818110156200084857805167ffffffffffffffff8111156200082357620008226200060f565b5b80860162000832898262000793565b85526020850194505050602081019050620007fc565b5050509392505050565b600082601f8301126200086a57620008696200060f565b5b600362000879848285620007c6565b91505092915050565b60008060008060008060c08789031215620008a257620008a1620004a4565b5b6000620008b289828a01620004fc565b9650506020620008c589828a0162000541565b9550506040620008d889828a016200057c565b9450506060620008eb89828a01620005b7565b9350506080620008fe89828a01620005f8565b92505060a087015167ffffffffffffffff811115620009225762000921620004a9565b5b6200093089828a0162000852565b9150509295509295509295565b7f4e487b7100000000000000000000000000000000000000000000000000000000600052602260045260246000fd5b600060028204905060018216806200098557607f821691505b602082108114156200099c576200099b6200093d565b5b50919050565b60805160601c60a05160601c60c05160c01c60e0516101005160e01c610120516139d962000a0c60003960008181610dbc0152610fc00152600061109a01526000611056015260006110770152600061101a01526000818161096301526109b701526139d96000f3fe60806040526004361061019c5760003560e01c806370a08231116100ec578063a51cccf31161008a578063c87b56dd11610064578063c87b56dd146105bb578063e985e9c5146105f8578063ee89dab414610635578063f2fde38b146106605761019c565b8063a51cccf314610537578063aa15249114610574578063b88d4fde146105925761019c565b80638da5cb5b116100c65780638da5cb5b1461047b57806395d89b41146104a6578063a22cb465146104d1578063a36f573b146104fa5761019c565b806370a08231146103fc578063715018a6146104395780637a5caab3146104505761019c565b806323b872dd1161015957806342842e0e1161013357806342842e0e146103405780635dacf5f4146103695780636352211e146103945780636e02007d146103d15761019c565b806323b872dd146102c35780633af25975146102ec5780633ccfd60b146103295761019c565b806301ffc9a7146101a157806306fdde03146101de578063081812fc14610209578063095ea7b3146102465780630b21a83b1461026f5780631fe543e31461029a575b600080fd5b3480156101ad57600080fd5b506101c860048036038101906101c39190612587565b610689565b6040516101d591906125cf565b60405180910390f35b3480156101ea57600080fd5b506101f361076b565b6040516102009190612683565b60405180910390f35b34801561021557600080fd5b50610230600480360381019061022b91906126db565b6107fd565b60405161023d9190612749565b60405180910390f35b34801561025257600080fd5b5061026d60048036038101906102689190612790565b610843565b005b34801561027b57600080fd5b5061028461095b565b60405161029191906127df565b60405180910390f35b3480156102a657600080fd5b506102c160048036038101906102bc9190612942565b610961565b005b3480156102cf57600080fd5b506102ea60048036038101906102e5919061299e565b610a21565b005b3480156102f857600080fd5b50610313600480360381019061030e91906126db565b610a81565b6040516103209190612683565b60405180910390f35b34801561033557600080fd5b5061033e610b31565b005b34801561034c57600080fd5b506103676004803603810190610362919061299e565b610be5565b005b34801561037557600080fd5b5061037e610c05565b60405161038b9190612a9c565b60405180910390f35b3480156103a057600080fd5b506103bb60048036038101906103b691906126db565b610c30565b6040516103c89190612749565b60405180910390f35b3480156103dd57600080fd5b506103e6610ce2565b6040516103f391906127df565b60405180910390f35b34801561040857600080fd5b50610423600480360381019061041e9190612ab7565b610cec565b60405161043091906127df565b60405180910390f35b34801561044557600080fd5b5061044e610da4565b005b34801561045c57600080fd5b50610465610db8565b60405161047291906127df565b60405180910390f35b34801561048757600080fd5b50610490610de0565b60405161049d9190612749565b60405180910390f35b3480156104b257600080fd5b506104bb610e0a565b6040516104c89190612683565b60405180910390f35b3480156104dd57600080fd5b506104f860048036038101906104f39190612b10565b610e9c565b005b34801561050657600080fd5b50610521600480360381019061051c91906126db565b610eb2565b60405161052e9190612749565b60405180910390f35b34801561054357600080fd5b5061055e600480360381019061055991906126db565b610ee5565b60405161056b9190612bc7565b60405180910390f35b61057c610fbc565b60405161058991906127df565b60405180910390f35b34801561059e57600080fd5b506105b960048036038101906105b49190612c97565b6111bc565b005b3480156105c757600080fd5b506105e260048036038101906105dd91906126db565b61121e565b6040516105ef9190612683565b60405180910390f35b34801561060457600080fd5b5061061f600480360381019061061a9190612d1a565b611331565b60405161062c91906125cf565b60405180910390f35b34801561064157600080fd5b5061064a6113c5565b60405161065791906125cf565b60405180910390f35b34801561066c57600080fd5b5061068760048036038101906106829190612ab7565b6113dc565b005b60007f80ac58cd000000000000000000000000000000000000000000000000000000007bffffffffffffffffffffffffffffffffffffffffffffffffffffffff1916827bffffffffffffffffffffffffffffffffffffffffffffffffffffffff1916148061075457507f5b5e139f000000000000000000000000000000000000000000000000000000007bffffffffffffffffffffffffffffffffffffffffffffffffffffffff1916827bffffffffffffffffffffffffffffffffffffffffffffffffffffffff1916145b80610764575061076382611460565b5b9050919050565b60606000805461077a90612d89565b80601f01602080910402602001604051908101604052809291908181526020018280546107a690612d89565b80156107f35780601f106107c8576101008083540402835291602001916107f3565b820191906000526020600020905b8154815290600101906020018083116107d657829003601f168201915b5050505050905090565b6000610808826114ca565b6004600083815260200190815260200160002060009054906101000a900473ffffffffffffffffffffffffffffffffffffffff169050919050565b600061084e82610c30565b90508073ffffffffffffffffffffffffffffffffffffffff168373ffffffffffffffffffffffffffffffffffffffff1614156108bf576040517f08c379a00000000000000000000000000000000000000000000000000000000081526004016108b690612e2d565b60405180910390fd5b8073ffffffffffffffffffffffffffffffffffffffff166108de611515565b73ffffffffffffffffffffffffffffffffffffffff16148061090d575061090c81610907611515565b611331565b5b61094c576040517f08c379a000000000000000000000000000000000000000000000000000000000815260040161094390612ebf565b60405180910390fd5b610956838361151d565b505050565b60085481565b7f000000000000000000000000000000000000000000000000000000000000000073ffffffffffffffffffffffffffffffffffffffff163373ffffffffffffffffffffffffffffffffffffffff1614610a1357337f00000000000000000000000000000000000000000000000000000000000000006040517f1cf993f4000000000000000000000000000000000000000000000000000000008152600401610a0a929190612edf565b60405180910390fd5b610a1d82826115d6565b5050565b610a32610a2c611515565b82611776565b610a71576040517f08c379a0000000000000000000000000000000000000000000000000000000008152600401610a6890612f7a565b60405180910390fd5b610a7c83838361180b565b505050565b606060098281548110610a9757610a96612f9a565b5b906000526020600020018054610aac90612d89565b80601f0160208091040260200160405190810160405280929190818152602001828054610ad890612d89565b8015610b255780601f10610afa57610100808354040283529160200191610b25565b820191906000526020600020905b815481529060010190602001808311610b0857829003601f168201915b50505050509050919050565b610b39611a72565b600047905060003373ffffffffffffffffffffffffffffffffffffffff1682604051610b6490612ffa565b60006040518083038185875af1925050503d8060008114610ba1576040519150601f19603f3d011682016040523d82523d6000602084013e610ba6565b606091505b5050905080610be1576040517f5b092d0500000000000000000000000000000000000000000000000000000000815260040160405180910390fd5b5050565b610c00838383604051806020016040528060008152506111bc565b505050565b610c0d612456565b6040518060600160405280600a8152602001601e81526020016064815250905090565b6000806002600084815260200190815260200160002060009054906101000a900473ffffffffffffffffffffffffffffffffffffffff169050600073ffffffffffffffffffffffffffffffffffffffff168173ffffffffffffffffffffffffffffffffffffffff161415610cd9576040517f08c379a0000000000000000000000000000000000000000000000000000000008152600401610cd09061305b565b60405180910390fd5b80915050919050565b6000600854905090565b60008073ffffffffffffffffffffffffffffffffffffffff168273ffffffffffffffffffffffffffffffffffffffff161415610d5d576040517f08c379a0000000000000000000000000000000000000000000000000000000008152600401610d54906130ed565b60405180910390fd5b600360008373ffffffffffffffffffffffffffffffffffffffff1673ffffffffffffffffffffffffffffffffffffffff168152602001908152602001600020549050919050565b610dac611a72565b610db66000611af0565b565b60007f0000000000000000000000000000000000000000000000000000000000000000905090565b6000600760009054906101000a900473ffffffffffffffffffffffffffffffffffffffff16905090565b606060018054610e1990612d89565b80601f0160208091040260200160405190810160405280929190818152602001828054610e4590612d89565b8015610e925780601f10610e6757610100808354040283529160200191610e92565b820191906000526020600020905b815481529060010190602001808311610e7557829003601f168201915b5050505050905090565b610eae610ea7611515565b8383611bb6565b5050565b600b6020528060005260406000206000915054906101000a900473ffffffffffffffffffffffffffffffffffffffff1681565b600080600090506000610ef6610c05565b905060005b6003811015610f8457828510158015610f2a5750818160038110610f2257610f21612f9a565b5b602002015185105b15610f4c57806002811115610f4257610f41612b50565b5b9350505050610fb7565b818160038110610f5f57610f5e612f9a565b5b602002015183610f6f919061313c565b92508080610f7c90613192565b915050610efb565b506040517f84ecdf3600000000000000000000000000000000000000000000000000000000815260040160405180910390fd5b919050565b60007f0000000000000000000000000000000000000000000000000000000000000000341015611018576040517fbaab598900000000000000000000000000000000000000000000000000000000815260040160405180910390fd5b7f000000000000000000000000000000000000000000000000000000000000000073ffffffffffffffffffffffffffffffffffffffff16635d3b1d307f00000000000000000000000000000000000000000000000000000000000000007f000000000000000000000000000000000000000000000000000000000000000060037f000000000000000000000000000000000000000000000000000000000000000060016040518663ffffffff1660e01b81526004016110db959493929190613253565b602060405180830381600087803b1580156110f557600080fd5b505af1158015611109573d6000803e3d6000fd5b505050506040513d601f19601f8201168201806040525081019061112d91906132bb565b905033600b600083815260200190815260200160002060006101000a81548173ffffffffffffffffffffffffffffffffffffffff021916908373ffffffffffffffffffffffffffffffffffffffff160217905550807ff873236e6cc0ecc5be1a9a35c95ee5b8d1ac4cc7bfef0cc5060391d6cc98e26b336040516111b19190612749565b60405180910390a290565b6111cd6111c7611515565b83611776565b61120c576040517f08c379a000000000000000000000000000000000000000000000000000000000815260040161120390612f7a565b60405180910390fd5b61121884848484611d23565b50505050565b6060611229826114ca565b600060066000848152602001908152602001600020805461124990612d89565b80601f016020809104026020016040519081016040528092919081815260200182805461127590612d89565b80156112c25780601f10611297576101008083540402835291602001916112c2565b820191906000526020600020905b8154815290600101906020018083116112a557829003601f168201915b5050505050905060006112d3611d7f565b90506000815114156112e957819250505061132c565b60008251111561131e578082604051602001611306929190613324565b6040516020818303038152906040529250505061132c565b61132784611d96565b925050505b919050565b6000600560008473ffffffffffffffffffffffffffffffffffffffff1673ffffffffffffffffffffffffffffffffffffffff16815260200190815260200160002060008373ffffffffffffffffffffffffffffffffffffffff1673ffffffffffffffffffffffffffffffffffffffff16815260200190815260200160002060009054906101000a900460ff16905092915050565b6000600a60009054906101000a900460ff16905090565b6113e4611a72565b600073ffffffffffffffffffffffffffffffffffffffff168173ffffffffffffffffffffffffffffffffffffffff161415611454576040517f08c379a000000000000000000000000000000000000000000000000000000000815260040161144b906133ba565b60405180910390fd5b61145d81611af0565b50565b60007f01ffc9a7000000000000000000000000000000000000000000000000000000007bffffffffffffffffffffffffffffffffffffffffffffffffffffffff1916827bffffffffffffffffffffffffffffffffffffffffffffffffffffffff1916149050919050565b6114d381611dfe565b611512576040517f08c379a00000000000000000000000000000000000000000000000000000000081526004016115099061305b565b60405180910390fd5b50565b600033905090565b816004600083815260200190815260200160002060006101000a81548173ffffffffffffffffffffffffffffffffffffffff021916908373ffffffffffffffffffffffffffffffffffffffff160217905550808273ffffffffffffffffffffffffffffffffffffffff1661159083610c30565b73ffffffffffffffffffffffffffffffffffffffff167f8c5be1e5ebec7d5bd14f71427d1e84f3dd0314c0f7b2291e5b200ac8c7c3b92560405160405180910390a45050565b6000600b600084815260200190815260200160002060009054906101000a900473ffffffffffffffffffffffffffffffffffffffff1690506000600854905060085460086000828254611629919061313c565b92505081905550600060648460008151811061164857611647612f9a565b5b602002602001015161165a9190613409565b9050600061166782610ee5565b90506116738484611e6a565b61173583600983600281111561168c5761168b612b50565b5b8154811061169d5761169c612f9a565b5b9060005260206000200180546116b290612d89565b80601f01602080910402602001604051908101604052809291908181526020018280546116de90612d89565b801561172b5780601f106117005761010080835404028352916020019161172b565b820191906000526020600020905b81548152906001019060200180831161170e57829003601f168201915b5050505050611e88565b7f8a269f26b688e110e9cbd887d163dab35cae678fa353a0292de532c0cac1ecdc818560405161176692919061343a565b60405180910390a1505050505050565b60008061178283610c30565b90508073ffffffffffffffffffffffffffffffffffffffff168473ffffffffffffffffffffffffffffffffffffffff1614806117c457506117c38185611331565b5b8061180257508373ffffffffffffffffffffffffffffffffffffffff166117ea846107fd565b73ffffffffffffffffffffffffffffffffffffffff16145b91505092915050565b8273ffffffffffffffffffffffffffffffffffffffff1661182b82610c30565b73ffffffffffffffffffffffffffffffffffffffff1614611881576040517f08c379a0000000000000000000000000000000000000000000000000000000008152600401611878906134d5565b60405180910390fd5b600073ffffffffffffffffffffffffffffffffffffffff168273ffffffffffffffffffffffffffffffffffffffff1614156118f1576040517f08c379a00000000000000000000000000000000000000000000000000000000081526004016118e890613567565b60405180910390fd5b6118fc838383611efc565b61190760008261151d565b6001600360008573ffffffffffffffffffffffffffffffffffffffff1673ffffffffffffffffffffffffffffffffffffffff16815260200190815260200160002060008282546119579190613587565b925050819055506001600360008473ffffffffffffffffffffffffffffffffffffffff1673ffffffffffffffffffffffffffffffffffffffff16815260200190815260200160002060008282546119ae919061313c565b92505081905550816002600083815260200190815260200160002060006101000a81548173ffffffffffffffffffffffffffffffffffffffff021916908373ffffffffffffffffffffffffffffffffffffffff160217905550808273ffffffffffffffffffffffffffffffffffffffff168473ffffffffffffffffffffffffffffffffffffffff167fddf252ad1be2c89b69c2b068fc378daa952ba7f163c4a11628f55a4df523b3ef60405160405180910390a4611a6d838383611f01565b505050565b611a7a611515565b73ffffffffffffffffffffffffffffffffffffffff16611a98610de0565b73ffffffffffffffffffffffffffffffffffffffff1614611aee576040517f08c379a0000000000000000000000000000000000000000000000000000000008152600401611ae590613607565b60405180910390fd5b565b6000600760009054906101000a900473ffffffffffffffffffffffffffffffffffffffff16905081600760006101000a81548173ffffffffffffffffffffffffffffffffffffffff021916908373ffffffffffffffffffffffffffffffffffffffff1602179055508173ffffffffffffffffffffffffffffffffffffffff168173ffffffffffffffffffffffffffffffffffffffff167f8be0079c531659141344cd1fd0a4f28419497f9722a3daafe3b4186f6b6457e060405160405180910390a35050565b8173ffffffffffffffffffffffffffffffffffffffff168373ffffffffffffffffffffffffffffffffffffffff161415611c25576040517f08c379a0000000000000000000000000000000000000000000000000000000008152600401611c1c90613673565b60405180910390fd5b80600560008573ffffffffffffffffffffffffffffffffffffffff1673ffffffffffffffffffffffffffffffffffffffff16815260200190815260200160002060008473ffffffffffffffffffffffffffffffffffffffff1673ffffffffffffffffffffffffffffffffffffffff16815260200190815260200160002060006101000a81548160ff0219169083151502179055508173ffffffffffffffffffffffffffffffffffffffff168373ffffffffffffffffffffffffffffffffffffffff167f17307eab39ab6107e8899845ad3d59bd9653f200f220920489ca2b5937696c3183604051611d1691906125cf565b60405180910390a3505050565b611d2e84848461180b565b611d3a84848484611f06565b611d79576040517f08c379a0000000000000000000000000000000000000000000000000000000008152600401611d7090613705565b60405180910390fd5b50505050565b606060405180602001604052806000815250905090565b6060611da1826114ca565b6000611dab611d7f565b90506000815111611dcb5760405180602001604052806000815250611df6565b80611dd58461209d565b604051602001611de6929190613324565b6040516020818303038152906040525b915050919050565b60008073ffffffffffffffffffffffffffffffffffffffff166002600084815260200190815260200160002060009054906101000a900473ffffffffffffffffffffffffffffffffffffffff1673ffffffffffffffffffffffffffffffffffffffff1614159050919050565b611e848282604051806020016040528060008152506121fe565b5050565b611e9182611dfe565b611ed0576040517f08c379a0000000000000000000000000000000000000000000000000000000008152600401611ec790613797565b60405180910390fd5b80600660008481526020019081526020016000209080519060200190611ef7929190612478565b505050565b505050565b505050565b6000611f278473ffffffffffffffffffffffffffffffffffffffff16612259565b15612090578373ffffffffffffffffffffffffffffffffffffffff1663150b7a02611f50611515565b8786866040518563ffffffff1660e01b8152600401611f72949392919061380c565b602060405180830381600087803b158015611f8c57600080fd5b505af1925050508015611fbd57506040513d601f19601f82011682018060405250810190611fba919061386d565b60015b612040573d8060008114611fed576040519150601f19603f3d011682016040523d82523d6000602084013e611ff2565b606091505b50600081511415612038576040517f08c379a000000000000000000000000000000000000000000000000000000000815260040161202f90613705565b60405180910390fd5b805181602001fd5b63150b7a0260e01b7bffffffffffffffffffffffffffffffffffffffffffffffffffffffff1916817bffffffffffffffffffffffffffffffffffffffffffffffffffffffff191614915050612095565b600190505b949350505050565b606060008214156120e5576040518060400160405280600181526020017f300000000000000000000000000000000000000000000000000000000000000081525090506121f9565b600082905060005b6000821461211757808061210090613192565b915050600a82612110919061389a565b91506120ed565b60008167ffffffffffffffff811115612133576121326127ff565b5b6040519080825280601f01601f1916602001820160405280156121655781602001600182028036833780820191505090505b5090505b600085146121f25760018261217e9190613587565b9150600a8561218d9190613409565b6030612199919061313c565b60f81b8183815181106121af576121ae612f9a565b5b60200101907effffffffffffffffffffffffffffffffffffffffffffffffffffffffffffff1916908160001a905350600a856121eb919061389a565b9450612169565b8093505050505b919050565b612208838361227c565b6122156000848484611f06565b612254576040517f08c379a000000000000000000000000000000000000000000000000000000000815260040161224b90613705565b60405180910390fd5b505050565b6000808273ffffffffffffffffffffffffffffffffffffffff163b119050919050565b600073ffffffffffffffffffffffffffffffffffffffff168273ffffffffffffffffffffffffffffffffffffffff1614156122ec576040517f08c379a00000000000000000000000000000000000000000000000000000000081526004016122e390613917565b60405180910390fd5b6122f581611dfe565b15612335576040517f08c379a000000000000000000000000000000000000000000000000000000000815260040161232c90613983565b60405180910390fd5b61234160008383611efc565b6001600360008473ffffffffffffffffffffffffffffffffffffffff1673ffffffffffffffffffffffffffffffffffffffff1681526020019081526020016000206000828254612391919061313c565b92505081905550816002600083815260200190815260200160002060006101000a81548173ffffffffffffffffffffffffffffffffffffffff021916908373ffffffffffffffffffffffffffffffffffffffff160217905550808273ffffffffffffffffffffffffffffffffffffffff16600073ffffffffffffffffffffffffffffffffffffffff167fddf252ad1be2c89b69c2b068fc378daa952ba7f163c4a11628f55a4df523b3ef60405160405180910390a461245260008383611f01565b5050565b6040518060600160405280600390602082028036833780820191505090505090565b82805461248490612d89565b90600052602060002090601f0160209004810192826124a657600085556124ed565b82601f106124bf57805160ff19168380011785556124ed565b828001600101855582156124ed579182015b828111156124ec5782518255916020019190600101906124d1565b5b5090506124fa91906124fe565b5090565b5b808211156125175760008160009055506001016124ff565b5090565b6000604051905090565b600080fd5b600080fd5b60007fffffffff0000000000000000000000000000000000000000000000000000000082169050919050565b6125648161252f565b811461256f57600080fd5b50565b6000813590506125818161255b565b92915050565b60006020828403121561259d5761259c612525565b5b60006125ab84828501612572565b91505092915050565b60008115159050919050565b6125c9816125b4565b82525050565b60006020820190506125e460008301846125c0565b92915050565b600081519050919050565b600082825260208201905092915050565b60005b83811015612624578082015181840152602081019050612609565b83811115612633576000848401525b50505050565b6000601f19601f8301169050919050565b6000612655826125ea565b61265f81856125f5565b935061266f818560208601612606565b61267881612639565b840191505092915050565b6000602082019050818103600083015261269d818461264a565b905092915050565b6000819050919050565b6126b8816126a5565b81146126c357600080fd5b50565b6000813590506126d5816126af565b92915050565b6000602082840312156126f1576126f0612525565b5b60006126ff848285016126c6565b91505092915050565b600073ffffffffffffffffffffffffffffffffffffffff82169050919050565b600061273382612708565b9050919050565b61274381612728565b82525050565b600060208201905061275e600083018461273a565b92915050565b61276d81612728565b811461277857600080fd5b50565b60008135905061278a81612764565b92915050565b600080604083850312156127a7576127a6612525565b5b60006127b58582860161277b565b92505060206127c6858286016126c6565b9150509250929050565b6127d9816126a5565b82525050565b60006020820190506127f460008301846127d0565b92915050565b600080fd5b7f4e487b7100000000000000000000000000000000000000000000000000000000600052604160045260246000fd5b61283782612639565b810181811067ffffffffffffffff82111715612856576128556127ff565b5b80604052505050565b600061286961251b565b9050612875828261282e565b919050565b600067ffffffffffffffff821115612895576128946127ff565b5b602082029050602081019050919050565b600080fd5b60006128be6128b98461287a565b61285f565b905080838252602082019050602084028301858111156128e1576128e06128a6565b5b835b8181101561290a57806128f688826126c6565b8452602084019350506020810190506128e3565b5050509392505050565b600082601f830112612929576129286127fa565b5b81356129398482602086016128ab565b91505092915050565b6000806040838503121561295957612958612525565b5b6000612967858286016126c6565b925050602083013567ffffffffffffffff8111156129885761298761252a565b5b61299485828601612914565b9150509250929050565b6000806000606084860312156129b7576129b6612525565b5b60006129c58682870161277b565b93505060206129d68682870161277b565b92505060406129e7868287016126c6565b9150509250925092565b600060039050919050565b600081905092915050565b6000819050919050565b612a1a816126a5565b82525050565b6000612a2c8383612a11565b60208301905092915050565b6000602082019050919050565b612a4e816129f1565b612a5881846129fc565b9250612a6382612a07565b8060005b83811015612a94578151612a7b8782612a20565b9650612a8683612a38565b925050600181019050612a67565b505050505050565b6000606082019050612ab16000830184612a45565b92915050565b600060208284031215612acd57612acc612525565b5b6000612adb8482850161277b565b91505092915050565b612aed816125b4565b8114612af857600080fd5b50565b600081359050612b0a81612ae4565b92915050565b60008060408385031215612b2757612b26612525565b5b6000612b358582860161277b565b9250506020612b4685828601612afb565b9150509250929050565b7f4e487b7100000000000000000000000000000000000000000000000000000000600052602160045260246000fd5b60038110612b9057612b8f612b50565b5b50565b6000819050612ba182612b7f565b919050565b6000612bb182612b93565b9050919050565b612bc181612ba6565b82525050565b6000602082019050612bdc6000830184612bb8565b92915050565b600080fd5b600067ffffffffffffffff821115612c0257612c016127ff565b5b612c0b82612639565b9050602081019050919050565b82818337600083830152505050565b6000612c3a612c3584612be7565b61285f565b905082815260208101848484011115612c5657612c55612be2565b5b612c61848285612c18565b509392505050565b600082601f830112612c7e57612c7d6127fa565b5b8135612c8e848260208601612c27565b91505092915050565b60008060008060808587031215612cb157612cb0612525565b5b6000612cbf8782880161277b565b9450506020612cd08782880161277b565b9350506040612ce1878288016126c6565b925050606085013567ffffffffffffffff811115612d0257612d0161252a565b5b612d0e87828801612c69565b91505092959194509250565b60008060408385031215612d3157612d30612525565b5b6000612d3f8582860161277b565b9250506020612d508582860161277b565b9150509250929050565b7f4e487b7100000000000000000000000000000000000000000000000000000000600052602260045260246000fd5b60006002820490506001821680612da157607f821691505b60208210811415612db557612db4612d5a565b5b50919050565b7f4552433732313a20617070726f76616c20746f2063757272656e74206f776e6560008201527f7200000000000000000000000000000000000000000000000000000000000000602082015250565b6000612e176021836125f5565b9150612e2282612dbb565b604082019050919050565b60006020820190508181036000830152612e4681612e0a565b9050919050565b7f4552433732313a20617070726f76652063616c6c6572206973206e6f7420746f60008201527f6b656e206f776e6572206e6f7220617070726f76656420666f7220616c6c0000602082015250565b6000612ea9603e836125f5565b9150612eb482612e4d565b604082019050919050565b60006020820190508181036000830152612ed881612e9c565b9050919050565b6000604082019050612ef4600083018561273a565b612f01602083018461273a565b9392505050565b7f4552433732313a2063616c6c6572206973206e6f7420746f6b656e206f776e6560008201527f72206e6f7220617070726f766564000000000000000000000000000000000000602082015250565b6000612f64602e836125f5565b9150612f6f82612f08565b604082019050919050565b60006020820190508181036000830152612f9381612f57565b9050919050565b7f4e487b7100000000000000000000000000000000000000000000000000000000600052603260045260246000fd5b600081905092915050565b50565b6000612fe4600083612fc9565b9150612fef82612fd4565b600082019050919050565b600061300582612fd7565b9150819050919050565b7f4552433732313a20696e76616c696420746f6b656e2049440000000000000000600082015250565b60006130456018836125f5565b91506130508261300f565b602082019050919050565b6000602082019050818103600083015261307481613038565b9050919050565b7f4552433732313a2061646472657373207a65726f206973206e6f74206120766160008201527f6c6964206f776e65720000000000000000000000000000000000000000000000602082015250565b60006130d76029836125f5565b91506130e28261307b565b604082019050919050565b60006020820190508181036000830152613106816130ca565b9050919050565b7f4e487b7100000000000000000000000000000000000000000000000000000000600052601160045260246000fd5b6000613147826126a5565b9150613152836126a5565b9250827fffffffffffffffffffffffffffffffffffffffffffffffffffffffffffffffff038211156131875761318661310d565b5b828201905092915050565b600061319d826126a5565b91507fffffffffffffffffffffffffffffffffffffffffffffffffffffffffffffffff8214156131d0576131cf61310d565b5b600182019050919050565b6000819050919050565b6131ee816131db565b82525050565b600067ffffffffffffffff82169050919050565b613211816131f4565b82525050565b600061ffff82169050919050565b61322e81613217565b82525050565b600063ffffffff82169050919050565b61324d81613234565b82525050565b600060a08201905061326860008301886131e5565b6132756020830187613208565b6132826040830186613225565b61328f6060830185613244565b61329c6080830184613244565b9695505050505050565b6000815190506132b5816126af565b92915050565b6000602082840312156132d1576132d0612525565b5b60006132df848285016132a6565b91505092915050565b600081905092915050565b60006132fe826125ea565b61330881856132e8565b9350613318818560208601612606565b80840191505092915050565b600061333082856132f3565b915061333c82846132f3565b91508190509392505050565b7f4f776e61626c653a206e6577206f776e657220697320746865207a65726f206160008201527f6464726573730000000000000000000000000000000000000000000000000000602082015250565b60006133a46026836125f5565b91506133af82613348565b604082019050919050565b600060208201905081810360008301526133d381613397565b9050919050565b7f4e487b7100000000000000000000000000000000000000000000000000000000600052601260045260246000fd5b6000613414826126a5565b915061341f836126a5565b92508261342f5761342e6133da565b5b828206905092915050565b600060408201905061344f6000830185612bb8565b61345c602083018461273a565b9392505050565b7f4552433732313a207472616e736665722066726f6d20696e636f72726563742060008201527f6f776e6572000000000000000000000000000000000000000000000000000000602082015250565b60006134bf6025836125f5565b91506134ca82613463565b604082019050919050565b600060208201905081810360008301526134ee816134b2565b9050919050565b7f4552433732313a207472616e7366657220746f20746865207a65726f2061646460008201527f7265737300000000000000000000000000000000000000000000000000000000602082015250565b60006135516024836125f5565b915061355c826134f5565b604082019050919050565b6000602082019050818103600083015261358081613544565b9050919050565b6000613592826126a5565b915061359d836126a5565b9250828210156135b0576135af61310d565b5b828203905092915050565b7f4f776e61626c653a2063616c6c6572206973206e6f7420746865206f776e6572600082015250565b60006135f16020836125f5565b91506135fc826135bb565b602082019050919050565b60006020820190508181036000830152613620816135e4565b9050919050565b7f4552433732313a20617070726f766520746f2063616c6c657200000000000000600082015250565b600061365d6019836125f5565b915061366882613627565b602082019050919050565b6000602082019050818103600083015261368c81613650565b9050919050565b7f4552433732313a207472616e7366657220746f206e6f6e20455243373231526560008201527f63656976657220696d706c656d656e7465720000000000000000000000000000602082015250565b60006136ef6032836125f5565b91506136fa82613693565b604082019050919050565b6000602082019050818103600083015261371e816136e2565b9050919050565b7f45524337323155524953746f726167653a2055524920736574206f66206e6f6e60008201527f6578697374656e7420746f6b656e000000000000000000000000000000000000602082015250565b6000613781602e836125f5565b915061378c82613725565b604082019050919050565b600060208201905081810360008301526137b081613774565b9050919050565b600081519050919050565b600082825260208201905092915050565b60006137de826137b7565b6137e881856137c2565b93506137f8818560208601612606565b61380181612639565b840191505092915050565b6000608082019050613821600083018761273a565b61382e602083018661273a565b61383b60408301856127d0565b818103606083015261384d81846137d3565b905095945050505050565b6000815190506138678161255b565b92915050565b60006020828403121561388357613882612525565b5b600061389184828501613858565b91505092915050565b60006138a5826126a5565b91506138b0836126a5565b9250826138c0576138bf6133da565b5b828204905092915050565b7f4552433732313a206d696e7420746f20746865207a65726f2061646472657373600082015250565b60006139016020836125f5565b915061390c826138cb565b602082019050919050565b60006020820190508181036000830152613930816138f4565b9050919050565b7f4552433732313a20746f6b656e20616c7265616479206d696e74656400000000600082015250565b600061396d601c836125f5565b915061397882613937565b602082019050919050565b6000602082019050818103600083015261399c81613960565b905091905056fea26469706673582212202e7abd2b21d26d63a20c6705b0b675c71c74dda905827260e56e64593b5f76db64736f6c63430008080033",
  "linkReferences": {},
  "deployedLinkReferences": {}
}